:020000040800F2
:1000000000000524CD2D0008392800083B280008F1
:100010003D2800083F280008412800080000000093
:1000200000000000000000000000000061DA00088D
:10003000432800080000000001DB000823D6000868
:100040001D2E00081D2E00081D2E00081D2E000864
:100050001D2E00081D2E00081D2E00081D2E000854
:100060001D2E00081D2E00081D2E00084528000822
:10007000552800081D2E00081D2E00081D2E000802
:100080001D2E00081D2E00081D2E000865280008E2
:100090007528000885280008952800081D2E0008EE
:1000A0001D2E00081D2E00081D2E00081D2E000804
:1000B0001D2E00081D2E00081D2E00081D2E0008F4
:1000C0001D2E00081D2E00081D2E00081D2E0008E4
:1000D0001D2E00081D2E00081D2E00081D2E0008D4
:1000E0001D2E00081D2E0008000000001D2E000817
:1000F0001D2E0008A52800081D2E00081D2E000832
:100100001D2E00081D2E00081D2E00081D2E0008A3
:100110001D2E0008B52800081D2E00081D2E000801
:100120001D2E00081D2E00081D2E00081D2E000883
:100130001D2E00081D2E00081D2E00081D2E000873
:1001400000000000000000000000000000000000AF
:100150001D2E00081D2E00081D2E00081D2E000853
:100160001D2E00081D2E00081D2E00081D2E000843
:100170001D2E0008C52800081D2E000800000000E4
:100180001D2E00081D2E0008D52800081D2E000871
:100190001D2E00081D2E00081D2E00081D2E000813
:1001A0001D2E00081D2E00081D2E00080000000056
:1001B0001D2E00081D2E00081D2E00081D2E0008F3
:1001C0001D2E00081D2E0008000000000000000089
:1001D00000000000000000001D2E000800000000CC
:1001E000000000000000000000000000000000000F
:1001F00000000000000000001D2E00081D2E000859
:100200001D2E00081D2E0008000000001D2E0008F5
:100210001D2E00081D2E00081D2E00081D2E000892
:100220001D2E0008000000001D2E00080000000028
:100230001D2E00081D2E0008000000001D2E0008C5
:100240001D2E00081D2E00081D2E00081D2E000862
:100250001D2E00081D2E00081D2E00081D2E000852
:100260001D2E00081D2E00081D2E00081D2E000842
:100270001D2E00081D2E00081D2E00080000000085
:100280001D2E00081D2E00081D2E00081D2E000822
:10029000000000001D2E00081D2E000800000000B8
:1002A000000000001D2E00081D2E00081D2E000855
:1002B0001D2E00081D2E00081D2E0008E528000830
:0C02C000F52800081D2E00081D2E000867
:1002D00081F0004102E000BF83F0004330B54FEAF7
:1002E00041044FEA430594EA050F08BF90EA020F64
:1002F0001FBF54EA000C55EA020C7FEA645C7FEAF7
:10030000655C00F0E2804FEA5454D4EB5555B8BF19
:100310006D420CDD2C4480EA020281EA030382EA8A
:10032000000083EA010180EA020281EA0303362D1C
:1003300088BF30BD11F0004F4FEA01314FF4801CEF
:100340004CEA113102D0404261EB410113F0004F01
:100350004FEA03334CEA133302D0524263EB4303B8
:1003600094EA050F00F0A780A4F10104D5F1200E56
:100370000DDB02FA0EFC22FA05F2801841F10001B1
:1003800003FA0EF2801843FA05F359410EE0A5F185
:1003900020050EF1200E012A03FA0EFC28BF4CF0B6
:1003A000020C43FA05F3C01851EBE37101F000456C
:1003B00007D54FF0000EDCF1000C7EEB00006EEB79
:1003C0000101B1F5801F1BD3B1F5001F0CD3490803
:1003D0005FEA30004FEA3C0C04F101044FEA44525A
:1003E00012F5800F80F09A80BCF1004F08BF5FEAE1
:1003F000500C50F1000041EB045141EA050130BDC1
:100400005FEA4C0C404141EB0101013C28BFB1F5D2
:10041000801FE9D291F0000F04BF01460020B1FA1D
:1004200081F308BF2033A3F10B03B3F120020CDAF0
:100430000C3208DD02F1140CC2F10C0201FA0CF0CE
:1004400021FA02F10CE002F11402D8BFC2F1200C33
:1004500001FA02F120FA0CFCDCBF41EA0C019040E9
:10046000E41AA2BF01EB0451294330BD6FEA040432
:100470001F3C1CDA0C340EDC04F11404C4F120021D
:1004800020FA04F001FA02F340EA030021FA04F32F
:1004900045EA030130BDC4F10C04C4F1200220FA86
:1004A00002F001FA04F340EA0300294630BD21FAC4
:1004B00004F0294630BD94F0000F83F4801306BF8A
:1004C00081F480110134013D4EE77FEA645C18BF7E
:1004D0007FEA655C29D094EA050F08BF90EA020F15
:1004E00005D054EA000C04BF1946104630BD91EA0D
:1004F000030F1EBF0021002030BD5FEA545C05D110
:100500004000494128BF41F0004130BD14F580044E
:100510003CBF01F5801130BD01F0004545F0FE41C2
:1005200041F470014FF0000030BD7FEA645C1ABFF7
:10053000194610467FEA655C1CBF0B46024650EA2E
:10054000013406BF52EA033591EA030F41F400215A
:1005500030BD00BF90F0000F04BF0021704730B5E0
:100560004FF4806404F132044FF000054FF00001B5
:1005700050E700BF90F0000F04BF0021704730B576
:100580004FF4806404F1320410F0004548BF40424B
:100590004FF000013EE700BF42004FEAE2014FEAA0
:1005A00031014FEA02701FBF12F07F4393F07F4F7B
:1005B00081F06051704732F07F4208BF704793F07E
:1005C0007F4F04BF41F40021704730B54FF4607491
:1005D00001F0004521F000411CE700BF50EA010294
:1005E00008BF704730B54FF000050AE050EA01023D
:1005F00008BF704730B511F0004502D5404261EBAD
:1006000041014FF4806404F132045FEA915C3FF4ED
:10061000D8AE4FF003025FEADC0C18BF03325FEA8A
:10062000DC0C18BF033202EBDC02C2F1200300FA3B
:1006300003FC20FA02F001FA03FE40EA0E0021FA60
:1006400002F11444BDE600BF70B54FF0FF0C4CF44E
:10065000E06C1CEA11541DBF1CEA135594EA0C0F00
:1006600095EA0C0F00F0DEF82C4481EA030621EA3B
:100670004C5123EA4C5350EA013518BF52EA033576
:1006800041F4801143F4801338D0A0FB02CE4FF028
:100690000005E1FB02E506F00042E0FB03E54FF058
:1006A0000006E1FB03569CF0000F18BF4EF0010E50
:1006B000A4F1FF04B6F5007F64F5407404D25FEA4C
:1006C0004E0E6D4146EB060642EAC62141EA5551FF
:1006D0004FEAC52040EA5E504FEACE2EB4F1FD0C41
:1006E00088BFBCF5E06F1ED8BEF1004F08BF5FEABF
:1006F000500E50F1000041EB045170BD06F0004671
:1007000046EA010140EA020081EA0301B4EB5C041D
:10071000C2BFD4EB0C0541EA045170BD41F4801115
:100720004FF0000E013C00F3AB8014F1360FDEBF3A
:10073000002001F0004170BDC4F10004203C35DA16
:100740000C341BDC04F11404C4F1200500FA05F399
:1007500020FA04F001FA05F240EA020001F000423A
:1007600021F0004110EBD37021FA04F642EB0601B0
:100770005EEA430E08BF20EAD37070BDC4F10C04DA
:10078000C4F1200500FA04F320FA05F001FA04F29E
:1007900040EA020001F0004110EBD37041F100018A
:1007A0005EEA430E08BF20EAD37070BDC4F1200595
:1007B00000FA05F24EEA020E20FA04F301FA05F2FD
:1007C00043EA020321FA04F001F0004121FA04F2A5
:1007D00020EA020000EBD3705EEA430E08BF20EA75
:1007E000D37070BD94F0000F0FD101F000464000AF
:1007F00041EB010111F4801F08BF013CF7D041EA31
:10080000060195F0000F18BF704703F00046520034
:1008100043EB030313F4801F08BF013DF7D043EA05
:100820000603704794EA0C0F0CEA135518BF95EABB
:100830000C0F0CD050EA410618BF52EA4306D1D142
:1008400081EA030101F000414FF0000070BD50EA61
:10085000410606BF1046194652EA430619D094EAEB
:100860000C0F02D150EA013613D195EA0C0F05D1D5
:1008700052EA03361CBF104619460AD181EA030129
:1008800001F0004141F0FE4141F470014FF00000E1
:1008900070BD41F0FE4141F4780170BD70B54FF07C
:1008A000FF0C4CF4E06C1CEA11541DBF1CEA1355FC
:1008B00094EA0C0F95EA0C0F00F0A7F8A4EB0504DE
:1008C00081EA030E52EA03354FEA013100F08880D5
:1008D0004FEA03334FF0805545EA131343EA12639E
:1008E0004FEA022245EA111545EA10654FEA002653
:1008F0000EF000419D4208BF964244F1FD0404F50C
:10090000407402D25B084FEA3202B61A65EB030567
:100910005B084FEA32024FF480104FF4002CB6EB24
:10092000020E75EB030E22BFB61A754640EA0C00A4
:100930005B084FEA3202B6EB020E75EB030E22BFE4
:10094000B61A754640EA5C005B084FEA3202B6EB25
:10095000020E75EB030E22BFB61A754640EA9C00E4
:100960005B084FEA3202B6EB020E75EB030E22BFB4
:10097000B61A754640EADC0055EA060E18D04FEA72
:10098000051545EA16754FEA06164FEAC30343EA12
:1009900052734FEAC2025FEA1C1CC0D111F4801FDF
:1009A0000BD141EA00014FF000004FF0004CB6E7D8
:1009B00011F4801F04BF01430020B4F1FD0C88BF77
:1009C000BCF5E06F3FF6AFAEB5EB030C04BFB6EB82
:1009D000020C5FEA500C50F1000041EB045170BD75
:1009E0000EF0004E4EEA113114EB5C04C2BFD4EBA2
:1009F0000C0541EA045170BD41F480114FF0000E26
:100A0000013C90E645EA060E8DE60CEA135594EAA1
:100A10000C0F08BF95EA0C0F3FF43BAF94EA0C0FA4
:100A20000AD150EA01347FF434AF95EA0C0F7FF419
:100A300025AF104619462CE795EA0C0F06D152EA6D
:100A400003353FF4FDAE1046194622E750EA410651
:100A500018BF52EA43067FF4C5AE50EA41047FF462
:100A60000DAF52EA43057FF4EBAE12E74FEA4102C5
:100A7000B2F1E04324BFB3F5001CDCF1FE5C0DD9FC
:100A800001F0004C4FEAC0024CEA5070B2F1004F46
:100A900040EB830008BF20F00100704711F0804F49
:100AA00021D113F13872BCBF01F00040704741F40E
:100AB00080114FEA5252C2F11802C2F1200C10FA12
:100AC0000CF320FA02F018BF40F001004FEAC123F6
:100AD0004FEAD32303FA0CFC40EA0C0023FA02F39A
:100AE0004FEA4303CCE77FEA625307D150EA013370
:100AF0001EBF4FF0FE4040F44000704701F0004040
:100B000040F0FE4040F40000704700BF53B94AB9BE
:100B1000002908BF00281CBF4FF0FF314FF0FF3005
:100B200000F00CB8ADF1080C6DE904CE0FF0F8FA46
:100B3000DDF804E0DDE9022304B07047704700BF30
:100B4000844641EA000313F003036DD1403A41D3D8
:100B500051F8043B40F8043B51F8043B40F8043B97
:100B600051F8043B40F8043B51F8043B40F8043B87
:100B700051F8043B40F8043B51F8043B40F8043B77
:100B800051F8043B40F8043B51F8043B40F8043B67
:100B900051F8043B40F8043B51F8043B40F8043B57
:100BA00051F8043B40F8043B51F8043B40F8043B47
:100BB00051F8043B40F8043B51F8043B40F8043B37
:100BC00051F8043B40F8043B51F8043B40F8043B27
:100BD000403ABDD2303211D351F8043B40F8043BC7
:100BE00051F8043B40F8043B51F8043B40F8043B07
:100BF00051F8043B40F8043B103AEDD20C3205D3D7
:100C000051F8043B40F8043B043AF9D2043208D0CE
:100C1000D2071CBF11F8013B00F8013B01D30B8840
:100C200003806046704700BF082A13D38B078DD01E
:100C300010F003038AD0C3F10403D21ADB071CBFF0
:100C400011F8013B00F8013B80D331F8023B20F85A
:100C5000023B7BE7043AD9D3013A11F8013B00F893
:100C6000013BF9D20B7803704B7843708B7883701B
:100C7000604670470348044B834202D0034B03B1E4
:100C800018477047B0060024B0060024000000009A
:100C90000548064B1B1AD90F01EBA301491002D0DE
:100CA000034B03B118477047B0060024B006002478
:100CB0000000000010B5064C237843B9FFF7DAFFB7
:100CC000044B13B10448AFF300800123237010BD1F
:100CD000B006002400000000DC18010808B5054B30
:100CE0001BB105490548AFF30080BDE80840FFF798
:100CF000CFBF00BF00000000B4060024DC180108CC
:100D0000064B5B69C01A07EE900AF8EEE77A9FED92
:100D1000047A87EE870AB1EE400A704794070024F0
:100D20000000FA44DFED0E7A20EE670AB5EEC00A45
:100D3000F1EE10FA0BDBF6EE007A30EE270AFDEE4C
:100D4000C07A17EE900A074B5B6918447047F6EEBD
:100D5000007A30EE670AFDEEC07A17EE900AF2E7ED
:100D60000000FA44940700240B4BD3ED007AF5EE13
:100D7000C07AF1EE10FA05DDDFED087A064BC3ED1F
:100D8000007A70479FED067AF4EEC77AF1EE10FA1A
:100D9000F4D5DFED037AF1E7000000240000000045
:100DA000000096C3024B002283F83520704700BF35
:100DB00094070024124B1870124BC3F894100228A9
:100DC00018BF04281AD0B0F1080318BF0123062861
:100DD00014D09BB1B0F10F0318BF01230D280DD023
:100DE00063B1B0F1150318BF0123122806D02BB14F
:100DF000192803D0034B002283F89020704700BFCE
:100E000090070024CC06002408B501461B20FFF7FC
:100E1000D1FF08BD08B501460C20FFF7CBFF08BD88
:100E200000B583B0ADF80430074B83F8931083F816
:100E30009020BDF80420A3F891200499FFF7BAFF91
:100E400003B05DF804FB00BFCC060024044BD3F8CC
:100E50009430C01A092801D901207047002070473A
:100E6000CC06002408B5034B83F8A0001120FFF73F
:100E7000A1FF08BDCC06002438B501461148C3685F
:100E8000DA1704691D1B62EBE472002A10DB0D4BBC
:100E90005D620D4AD2F898208A1A1A625A6A0B4B80
:100EA0009A4207D8074B1A6A094B9A4206D838BDAE
:100EB000E51AECE70520FFF7D5FFF8E70420FFF778
:100EC000D1FFF4E794070024CC060024BF270900D3
:100ED0008F5F010010B59FED160AFFF723FF4FEA61
:100EE000E07E144AD368DC171946B0EB030C6EEBB6
:100EF000E373128D12B2002B11DB002A14DB40F6D3
:100F0000A1718C4573F10003B4BF01230023022AB1
:100F1000CCBF002303F0010343B1012010BDB1EBAE
:100F2000000C64EB0E03E8E75242E8E70020F5E727
:100F30000000C8C294070024134AD2F8B410134B1F
:100F4000D96292F8B82083F8382093F83230B3B1E0
:100F50000E4B99690E4A11601B8D1BB207EE903A39
:100F6000F8EEE77AB1EE047A67EE877ADFED096A88
:100F700087EEA67AF1EE477AC2ED017A7047044B0C
:100F800000221A605A607047CC060024940700249F
:100F9000880700240000704238B505460C46134B04
:100FA00093F831301BB1114B5B8D1BB28BB9002014
:100FB000FFF7F8FE0D4B83F83950002283F83220FA
:100FC00001210B4800F0BCFD21461D20FFF7F2FE79
:100FD00038BD0021074803F08EF818B9034A53685A
:100FE00001335360014B00225A85E0E79407002447
:100FF00080070024CC06002408B50D4BD3F89430AC
:10100000C31AB3F5967F0DD30146094B93F8A1306F
:10101000022B08D8064A013382F8A13092F89300D7
:10102000FFF7C8FE08BD0320FFF7B6FFFAE700BFD1
:10103000CC06002408B528B9054A5368013353602B
:10104000012008BD0120FFF7A7FF0020F9E700BF3E
:101050009407002410B50446174B93F8373043B17A
:1010600003F0FF02012A21D05821144803F02AF886
:1010700008E06FF0F901114803F03DF80E4B4FF610
:1010800006725A852146FFF7D5FF70B10A4890F8DD
:10109000373001330A4AA2FB031202F4FF7101EB5D
:1010A00052029B1ADBB280F8373010BDE922E821EA
:1010B000024802F0E9FFE5E794070024CC0600248B
:1010C000ABAAAAAA38B504469FED220AFFF72AFE6A
:1010D000214BDB68C31A83EAE372A2EBE372B2F539
:1010E0007A6F03DD002B11DDC82500E000251A4BC7
:1010F0001A4ADA6193F8373003F0FF024BB1012A44
:1011000021D0E421164802F0DDFF08E06FF0C705AA
:10111000EDE72946124802F0EEFF0F4B5D852146B0
:10112000FFF788FF70B10C4890F8373001330D4A53
:10113000A2FB031202F4FF7101EB52029B1ADBB215
:1011400080F8373038BDE922E821054802F09CFFDD
:10115000E5E700BF0000C8C2940700240000C8C231
:10116000CC060024ABAAAAAA002800F052812DE9DF
:10117000F04186B00E4604460546A64A1368013380
:10118000136055F8057B90F80480FF21582002F089
:10119000CCFFADF80C00ADF8000043462A463946B6
:1011A0009D4803F005F888B3237AA3B90122994B2F
:1011B00083F83320637A83B90122964B83F8342075
:1011C000964B1B780D2B0AD0944B1B78102B0FD00D
:1011D00006B0BDE8F0810022E9E70022EDE78E4B82
:1011E000002283F8A12031460E20FFF7E3FDEFE750
:1011F000884B93F83330002BEAD0874B002283F8DA
:10120000A02031461120FFF7D5FDE1E7276894F8CB
:101210000480E921E82002F088FFADF81000ADF865
:10122000000043462A4639467B4802F0C1FF0028A9
:1012300062D1276894F80480FF21E42002F075FF52
:10124000ADF81400ADF8000043462A46394672480E
:1012500002F0AEFF002840F09E80704B1B78022BFE
:1012600000F09F806C4B93F89030022BB0D16A480D
:10127000B0F89130ADF8003023792A46216802F0A9
:1012800068FF0028A4D0644B002283F8A120634BA0
:101290001B78043B152B9BD801A252F823F000BF0A
:1012A000E3130008D1110008ED130008D111000864
:1012B000F7130008D1110008D1110008D11100085E
:1012C000D1110008D1110008D1110008D111000876
:1012D000D1110008D111000801140008D111000833
:1012E000D1110008D1110008D1110008D111000856
:1012F000D11100080B140008284602F088FF84B2C0
:10130000284602F08DFF80B240EA0440414CE06084
:10131000E068FFF7F5FC84ED060A404B1B780F2BC5
:101320000FD03E4B1B78152B7FF452AF3A4B002267
:1013300083F8A12093F8A000F0B13146FFF72CFE0E
:1013400046E73549002281F8A120E0682061226249
:10135000626284F83720C1F8986081F8A02094F880
:10136000333023B131461120FFF724FD30E73146F9
:101370001020FFF71FFD2BE7264BDA685A61002289
:101380009A61002283F83720254ADA613146162017
:10139000FFF710FD1CE7284602F039FF1D4B1885AA
:1013A00016E71D4B93F89030012B7FF45BAF1A4882
:1013B000B0F89130ADF8003023792A46216802F068
:1013C000F7FE00283FF44EAF124B012283F8302085
:1013D000114B002283F8A12031460320FFF7EAFCDD
:1013E000F6E631460520FFF7E5FCF1E63146072039
:1013F000FFF7E0FCECE631460920FFF7DBFCE7E60F
:1014000031461320FFF7D6FCE2E63046FFF7FCFC3E
:10141000DEE6704794070024CC06002490070024E1
:101420000000C8C230B585B0054612E00D4C94F8F6
:101430008DC004EB0C130C330FCB8DE80F000CF1B7
:10144000010C0CF0070C84F88DC029466846FFF7A4
:101450008BFE044B93F88D2093F88C309342E5D1AA
:1014600005B030BDCC060024F8B52DED028B044646
:10147000214B93F8373043B103F0FF02012A35D0F6
:10148000E4211E4802F01EFE1AE01D4B93ED008A77
:1014900093ED011AD3ED021A174DD5ED060A298DE9
:1014A000184F09B2B0EE480A384600F051FB064624
:1014B0000146A7F1B40002F01EFE6E8585ED078A95
:1014C0002146FFF7B7FD70B10B4890F83730013374
:1014D0000D4AA2FB031202F4FF7101EB52029B1AA8
:1014E000DBB280F83730BDEC028BF8BDE922E82191
:1014F000024802F0C9FDE3E794070024CC0600246B
:101500000000002480070024ABAAAAAAF0B583B08B
:1015100006460F4614461D46BC2200211B480EF00D
:101520007BFF3C2200211A480EF076FF2CB1DFF839
:101530007CC094E80F008CE80F00144C00973346F1
:1015400000220121204602F06AFD012104F1B400CD
:1015500000F0F6FA0020FFF725FC0E4B01221A706E
:101560000D4B0E4A1A600E4959600E4999600E4B98
:10157000002119605960064B002083F83200DA61BF
:101580002946FFF717FC03B0F0BD00BFCC060024CE
:10159000940700240C000024000000240000C8C2AE
:1015A0000000A0410000A04288070024700700242A
:1015B00030B58DB00446FFF735FFB74B1B781C2BB9
:1015C00043D8DFE813F01D0029003F0051003F0021
:1015D0006C003F0089003F00A800C200F300030137
:1015E0003F001B013F003A014E013F0046007101E0
:1015F0003F009001CA01D8013F00F3010A0227020F
:10160000A64BD3F89430E31AB3F5FA7F1DD32146E5
:101610000120FFF7CFFB18E0E321A04802F052FDC4
:101620002146FFF707FD80B1FF21E32002F07DFD99
:10163000ADF80C000094039B012211460220FFF735
:10164000EFFB02E02046FFF7D7FCFFF775FC0DB07B
:1016500030BD924BD3F89430E31A312BF5D92146A3
:101660001420FFF7A7FBF0E72046FFF7EFFB002869
:10167000EBD08A4802F02BFD2146FFF7DBFC002867
:10168000E3D0FF214A2002F050FDADF81000009495
:10169000049B022203210420FFF7C2FBD5E720466A
:1016A000FFF7D4FB0028D0D0012211467B4802F07E
:1016B00014FD2146FFF7BEFC0028C6D00A210220F7
:1016C00002F033FDADF814000094059B02220521C1
:1016D0000620FFF7A5FBB8E72046FFF7B7FB002879
:1016E000B3D000216D4802F006FD2146FFF7A2FCB1
:1016F0000028AAD06A4B00225A85FF21102002F050
:1017000014FDADF818000094069B02220721082062
:10171000FFF786FB99E72046FFF798FB002894D057
:10172000604B1B7823B921461C20FFF743FB8CE755
:101730005A4802F0E6FC2146FFF77CFC002884D0E2
:1017400021460A20FFF736FB7FE7564B1B7843B351
:10175000524BD3F89430E31A40F2DB5293427FF6B7
:1017600074AF4F4B012583F83150002283F83620A7
:1017700083F8332083F834205A61002199611A627A
:101780005A6283F83720454880F8A0202946B430B3
:1017900000F0D6F92846FFF705FB2046FFF73AFB95
:1017A00053E721461B20FFF705FB4EE73D4B1B7817
:1017B00023B921461820FFF7FDFA46E7384B0022EF
:1017C00083F837202046FFF725FB3EE758213348B2
:1017D00002F078FC2146FFF72DFC00283FF435AFDE
:1017E000FF21582002F0A1FCADF81C000094079BDB
:1017F00001220C210D20FFF713FB26E72046FFF7FF
:1018000025FB00283FF421AFE922E821234802F01C
:101810003BFC2146FFF70EFC00283FF416AFE92100
:10182000E82002F082FCADF820000094089B012221
:101830000E210F20FFF7F4FA07E71A4B1B7823B9A4
:1018400021461820FFF7B6FAFFE62046FFF714FB03
:10185000114B1B78102B7FF4F8AE2046FFF7FAFBF4
:10186000F3E600210D4802F046FC2146FFF7E2FBBB
:1018700000283FF4EAAE0A4B00225A85FF211020CF
:1018800002F053FCADF824000094099B02221121C0
:101890001220FFF7C5FAD8E690070024CC060024F2
:1018A000940700240C0000242046FFF7CFFA0028FC
:1018B0003FF4CBAEE922E8215B4802F0E5FB21468C
:1018C000FFF7B8FB00283FF4C0AEE921E82002F0A2
:1018D0002CFCADF8280000940A9B0122142115204D
:1018E000FFF79EFAB1E6514B1B78C3B14E4BD3F8CC
:1018F0009430E31A44F61F62934215D900214A48F6
:1019000002F0F9FB18B94A4A536801335360484B57
:1019100000225A8521460420FFF73EFB95E621462A
:101920001820FFF747FA90E62046FFF7CBFBFFF7BA
:10193000D1FA00283FF489AE3D4B012183F83610DF
:1019400083F83210002283F837203A4800F0F8F884
:1019500021461720FFF72EFA77E6344B1B7823B980
:1019600021461820FFF726FA6FE6FFF7FDF920461B
:10197000FFF77AFD69E600212B4802F0BCFB214607
:10198000FFF758FB00283FF460AE294B00225A8530
:10199000FF21102002F0C9FBADF82C0000940B9B36
:1019A000022218211920FFF73BFA4EE61E4802F0EA
:1019B000AEFB2146FFF73EFB00283FF446AE1C4B32
:1019C000002283F831201A8501211A4800F0B8F866
:1019D00021461C20FFF7EEF937E62046FFF736FADE
:1019E00000283FF432AE104802F091FB2146FFF789
:1019F00021FB00283FF429AE0D4B002283F8312053
:101A00001A8501210B4800F09BF821461C20FFF7A6
:101A1000D1F91AE6054B1B78002B3FF416AE214690
:101A20000720FFF7C7F910E6CC0600240C000024BD
:101A30009407002480070024002918BF072A28D90A
:101A400000B5144A92F88C305FFA83FC013303F03E
:101A5000070E92F88D30734507D00E4B03EB0C1335
:101A6000D86008221A7400230CE00B4A93680133F3
:101A700093600CE0C85C074A02EB0C121A445074E5
:101A80000133DBB2072BF5D9024B83F88CE05DF80C
:101A900004FB7047CC06002494070024034B1B78FA
:101AA0001D2B01D0002070470120704790070024B3
:101AB000014B93F83100704794070024B5EEC00A3B
:101AC000F1EE10FA00DB7047B1EE400AFBE70028A8
:101AD000B8BF404280B27047F2EE087A20EE670A43
:101AE000DFED157AB4EEE70AF1EE10FA0CDCDFED6B
:101AF000137AB4EEE70AF1EE10FA11D4B5EEC00A8B
:101B0000F1EE10FA02DA0DE09FED0B0AF6EE007A24
:101B100030EE270ABDEEC00A10EE103A18B2704738
:101B20009FED060AF6EE007A30EE670ABDEEC00AB7
:101B300010EE103A18B2704700FEFF46000000C7D2
:101B4000034620B10022026001B1012119717047E2
:101B5000002877D0F0B52DED048B85B0F0EE408AEB
:101B6000B0EE608A11EE106A11EE905A0F460446EC
:101B700030EE600AFFF7A2FFB0EE409A237943B13E
:101B8000F0EE087AB4EEE70AF1EE10FA41D900233C
:101B90002371019602952C4B03939FED2C2AF0EEB6
:101BA000001A01A894ED001AF0EE480AB0EE680A97
:101BB0000AF048FCF0EE408AB5EEC08AF1EE10FA69
:101BC0002BDBB5EEC00AF1EE10FA26DDDFED208A40
:101BD000C4ED008AF0EE007AB4EEE79AF1EE10FA66
:101BE0000FD8B0EE680AFFF769FFDFED187AB4EEA0
:101BF000E70AF1EE10FA04D83846FFF768FF02282A
:101C00001ADDB0EE680AFFF767FF05B0BDEC048B84
:101C1000F0BD002323600020F7E7DFED0E7AB4EE7D
:101C2000E78AF1EE10FAD3D8F5EEC08AF1EE10FA99
:101C3000CED5DFED078ACBE7002323600123237194
:101C40000020E2E700207047A69B443BABAA2A3E57
:101C500000000000000096C32DE9F0418AB04FF06B
:101C600080430293002403940225049501260596DF
:101C7000069407940DF108080C4F4146384604F0CD
:101C8000A3F902940394049505960694079441469B
:101C9000384604F099F9009633462A4629463846D4
:101CA00004F0D7F90AB0BDE8F08100BF180900249C
:101CB0002DE9F0418AB04FF0804302930024039451
:101CC0000225049501260596069407940DF108084F
:101CD0000C4F4146384604F077F90294039404957A
:101CE0000596069407944146384604F06DF900962F
:101CF00033462A462946384604F0ABF90AB0BDE817
:101D0000F08100BF78080024F0B58BB04FF080431D
:101D100002930024039402250495059506940794E4
:101D200002AF0C4E3946304604F04EF9029403944B
:101D300004950595069407943946304604F044F915
:101D4000012300932A462946304604F082F90BB05D
:101D5000F0BD00BFD807002410B5FFF77DFF054C8C
:101D6000204604F08FF900220121204604F0CCFA2D
:101D700010BD00BF1809002410B5FFF799FF054CEE
:101D8000204604F07FF900220121204604F0BCFA2D
:101D900010BD00BF7808002410B5FFF7B5FF054C53
:101DA000204604F06FF900221021204604F0ACFA1E
:101DB00010BD00BFD807002400B58DB00392049376
:101DC00000230593069107934FF48012089209931C
:101DD0000A930B9308E010F803C003F130026A4441
:101DE00002F82CCC0133DBB28B42F4D301AA03A955
:101DF000044804F060F910B90DB05DF804FB01204F
:101E0000FAE700BF1809002410B58CB004466B46F1
:101E100002AA402104F08AF9054B9C4201D00CB083
:101E200010BD082269460298FFF706FEF7E700BFDB
:101E30001809002400B58DB06B4602AA412104F0B8
:101E400075F90DB05DF804FB08B50421014808F0F0
:101E5000D9F808BDA80A0024014B9863704700BF59
:101E60000018004010B50A46214C0146204609F0F2
:101E700043FAD4F880301B681E491F4A934218BFAA
:101E80008B422FD0183293422CD01832934229D053
:101E90001832934226D01832934223D018329342FC
:101EA00020D0183293421DD002F55672934219D0B9
:101EB0001832934216D01832934213D018329342FC
:101EC00010D0183293420DD0183293420AD01832F3
:101ED000934207D01832934204D01A6822F00402C9
:101EE0001A6003E01A6822F008021A6010BD00BFF1
:101EF000E40B0024100002402800024008B50268EC
:101F0000064B9A4200D008BD054A1378013313707E
:101F1000044B18680BF0C3FCF5E700BF00780040E5
:101F2000D0070024B809002400B583B00F4BD3F8C4
:101F3000D82042F00102C3F8D820D3F8D83003F0FB
:101F400001030193019B002205210B2002F018FAE6
:101F50000B2002F025FA002205210C2002F010FAD5
:101F60000C2002F01DFA03B05DF804FB0044025897
:101F700038B51648164B036000238360C360012206
:101F8000027443748274032545610A2181611D2412
:101F9000C461016245628162C4620163436382631A
:101FA000C26308210164042242648164C26403653F
:101FB00042658365C36501664366826603F0BAFEC7
:101FC00000B938BD00F07AFAFBE700BF1809002419
:101FD00000A0004038B51748174B0360002383600A
:101FE000C3600122027443748274032545610A218F
:101FF00081611D24C461016245628162C462016322
:1020000040F2553141638263C263082101640422B6
:1020100042648164C264036542658365C365016689
:102020004366826603F086FE00B938BD00F046FACA
:10203000FBE700BF7808002400A4004038B517482B
:10204000174B036000238360C36001220274437452
:102050008274032545610A2181611D24C4610162E6
:1020600045628162C462016340F2AA614163826396
:10207000C26308210164042242648164C26403656E
:1020800042658365C36501664366826603F052FE5E
:1020900000B938BD00F012FAFBE700BFD8070024F2
:1020A00000D4004030B5BBB00446002135913691D4
:1020B000379138913991B82206A80EF0ADF923680E
:1020C0007B4A934208D07B4A934253D07A4A934248
:1020D00000F09E803BB030BD4FF400420023CDE9BC
:1020E00006234FF08053219306A806F05FF980BBCA
:1020F000724A136801331360012B2DD0704BD3F853
:10210000E02042F00802C3F8E020D3F8E03003F00A
:1021100008030193019B0323359302233693002484
:10212000379438940923399335A9664804F0D4FAD2
:1021300022460521132002F023F9132002F030F982
:1021400022460521152002F01BF9152002F028F97E
:10215000C0E700F0B3F9CBE7594BD3F8EC2042F4D9
:102160008072C3F8EC20D3F8EC3003F48073009352
:10217000009BC3E74FF400420023CDE906234FF054
:102180008053219306A806F011F980BB4B4A1368CF
:1021900001331360012B2DD0494BD3F8E02042F0DE
:1021A0000202C3F8E020D3F8E03003F00203039307
:1021B000039B60233593022336930024379438948D
:1021C0000923399335A9404804F086FA22460521AF
:1021D000142002F0D5F8142002F0E2F8224605217E
:1021E000162002F0CDF8162002F0DAF872E700F0BF
:1021F00065F9CBE7324BD3F8EC2042F48072C3F898
:10220000EC20D3F8EC3003F480730293029BC3E715
:102210004FF400420023CDE906234FF08053219371
:1022200006A806F0C3F888BB244A1368013313607C
:10223000012B2ED0224BD3F8E02042F00802C3F845
:10224000E020D3F8E03003F008030593059B4FF43A
:102250004053359302233693002437943894052550
:10226000399535A9174804F037FA224629469F20A8
:1022700002F086F89F2002F093F822462946A0201B
:1022800002F07EF8A02002F08BF823E700F016F9A8
:10229000CAE70B4BD3F8EC2042F48072C3F8EC2071
:1022A000D3F8EC3003F480730493049BC2E700BFBF
:1022B00000A0004000A4004000D40040D407002447
:1022C00000440258000C02580004025808B50DF0F2
:1022D000E9FC01200BF045FAFBE7000008B5154AC0
:1022E000012108460BF04BFA134B1860134A0021EA
:1022F00013480BF0DBF9134B1860134A0021134805
:102300000BF0D4F9124B1860124A002112480BF05E
:10231000CDF9124B1860124A002112480BF0C6F991
:10232000114B1860114A002111480BF0BFF9114BF5
:10233000186008BDE8190108B8090024881A0108C6
:10234000CD220008CC090024641A01089FFA000875
:10235000C8090024401A010889FB0008C4090024A8
:102360001C1A01080DFB0008C0090024F819010817
:1023700029FC0008BC0900242DE9F0418CB007AD10
:1023800000240794089409940A940B94404BD3F8C2
:10239000E02042F00402C3F8E020D3F8E02002F08D
:1023A00004020192019AD3F8E02042F08002C3F8BF
:1023B000E020D3F8E02002F080020292029AD3F8E3
:1023C000E02042F00102C3F8E020D3F8E02002F060
:1023D00001020392039AD3F8E02042F01002C3F8FE
:1023E000E020D3F8E02002F010020492049AD3F81F
:1023F000E02042F00202C3F8E020D3F8E02002F02F
:1024000002020592059AD3F8E02042F00802C3F8D0
:10241000E020D3F8E03003F008030693069BDFF8D2
:10242000808022464FF46041404604F066FA194E1F
:1024300022464FF40041304604F05FFA4FF4604307
:1024400007930127089709940A942946404604F007
:1024500043F94FF400430793089709940A942946D7
:10246000304604F039F980230793089409942946EB
:10247000094804F031F94FF48063079308940994F4
:102480002946064804F028F90CB0BDE8F08100BFE9
:102490000044025800100258000C02580004025870
:1024A0000008025808B50268034B9A4200D008BDE4
:1024B00001F0EEFEFBE700BF0020004072B6FEE731
:1024C00000B59DB04C22002109A80DF0A5FF2022E7
:1024D000002101A80DF0A0FF022005F085F80023DF
:1024E0000093204B9A6922F440429A619B6903F45D
:1024F00040430093009B1B4B9B6913F4005FFAD091
:10250000012209924FF480330A930223129313930A
:1025100014932821159116920422179218930C23D4
:10252000199300231A931B9309A805F08FF8A8B9F3
:102530003F23019303210291002303930823049373
:102540004023059306934FF480620792089301A8F5
:1025500005F06AFC20B91DB05DF804FBFFF7AEFF83
:10256000FFF7ACFF0048025808B501F063FEFFF723
:10257000A7FFFFF701FFFFF7D7FC00F013F800F00B
:1025800083FAFFF7F5FCFFF725FDFFF757FD00F095
:10259000FBFA00F0BDFA0BF051F8FFF79FFE0BF0CD
:1025A0005FF8FEE708B51648164B03604FF480034A
:1025B00043604FF4003383600723C360002303614B
:1025C0004FF0807242614FF0806282614FF0805222
:1025D000C261036243628362C3624FF0804242631E
:1025E0008363C363036443648364C36403654365B3
:1025F000836506F09BFE00B908BDFFF75FFFFBE7B0
:10260000D009002400140058F0B5BBB004460021E6
:1026100035913691379138913991B82206A80DF04D
:10262000FBFE23684A4A934204D04A4A934259D057
:102630003BB0F0BD4FF480520023CDE906231023B8
:102640000893C023099302230A930B930C9320232E
:102650000E934FF480531D9306A805F0A7FE0028A3
:102660003DD13D4BD3F8F02042F48052C3F8F02026
:10267000D3F8F02002F480520192019AD3F8E020BE
:1026800042F00802C3F8E020D3F8E02002F008028C
:102690000292029AD3F8E02042F00202C3F8E0204E
:1026A000D3F8E03003F002030393039B80233593B8
:1026B000022736970024379438940526399635AD8D
:1026C0002946264804F008F818233593369737949E
:1026D000389439962946224803F0FEFFA8E7FFF711
:1026E000EDFEBEE74FF480420023CDE906234FF014
:1026F000A043319306A805F059FE30BB164BD3F822
:10270000F42042F02002C3F8F420D3F8F42002F0C1
:1027100020020492049AD3F8E02042F00102C3F8A8
:10272000E020D3F8E03003F001030593059BA023DC
:102730003593022336930023379338930823399334
:1027400035A9084803F0C8FF72E7FFF7B7FED5E7E1
:10275000003001400014005800440258000C025898
:10276000000402580000025800B583B00A4BD3F8A9
:10277000F42042F00202C3F8F420D3F8F43003F05E
:1027800002030193019B00220F216FF0010001F071
:10279000F7FD03B05DF804FB004402580F2801D98F
:1027A0000120704710B58AB00446002201462D2052
:1027B00001F0E6FD2D2001F0F3FD1A4B1C601A4BD1
:1027C000D3F8E82042F48072C3F8E820D3F8E83068
:1027D00003F480730093009B01A902A805F0B4FCE8
:1027E000079BBBB905F08CFC0346104AA2FB0323F0
:1027F0009B0C013B0E480F4A026040F2E732C26078
:10280000436000230361836007F0A6FA30B1012022
:102810000AB010BD05F074FC4300E6E7044807F079
:10282000F9F8F5E7580000240044025883DE1B4302
:10283000580A002400200040FEE7FEE7FEE7FEE71E
:10284000FEE7704708B5024802F0AAFD08BD00BFC8
:10285000F40A002408B5024802F0A2FD08BD00BF3A
:102860006C0B002408B5024803F0A6FD08BD00BFAC
:102870001809002408B5024803F09EFD08BD00BFFA
:102880007808002408B5024803F096FD08BD00BF93
:102890001809002408B5024803F08EFD08BD00BFEA
:1028A0007808002408B5024807F008F908BD00BF01
:1028B000580A002408B5024807F046FD08BD00BFCD
:1028C000780C002408B5024804F04DFB08BD00BF99
:1028D0005872002408B5024807F036FD08BD00BF55
:1028E000E40B002408B5024803F066FD08BD00BFF4
:1028F000D807002408B5024803F05EFD08BD00BFFC
:10290000D807002410B503460C4A0D490D4800684D
:1029100040B10C4800680344521A934206D8094A51
:10292000136010BD0748084C0460F2E70DF0F8FD95
:102930000C2303604FF0FF30F3E700BF00000524D5
:1029400000040000A40A0024407A0024224AD2F89D
:10295000883043F47003C2F88830204B1B6803F0C2
:102960000F03062B06D81D4A136823F00F0343F00C
:10297000070313601A4B1A6842F001021A60002222
:102980001A611968174A0A401A60144B1B6813F041
:10299000080F06D0114A136823F00F0343F0070312
:1029A00013600F4B00229A61DA611A620E49996234
:1029B0000E49D9620E4919635A639963DA6319643F
:1029C0005A64196821F4802119601A66094B43F290
:1029D000D2021A60704700BF00ED00E000200052F4
:1029E000004402587FEDF6EA000202020000FF01F7
:1029F000800201010040005202680A4B9A4200D056
:102A0000704782B0084BD3F8E82042F04002C3F888
:102A1000E820D3F8E83003F040030193019B02B0B3
:102A2000704700BF001800400044025800B587B04E
:102A300000230193029303930493059302680F4BC1
:102A40009A4202D007B05DF804FB0D4BD3F8E020AA
:102A500042F00202C3F8E020D3F8E03003F00203B2
:102A60000093009B4FF400430193022302930593CC
:102A700001A9044803F030FEE4E700BF001800405D
:102A8000004402580004025800B58BB0002307939D
:102A9000089309930093019302930393049305937E
:102AA00006931948194A026017224260836040F277
:102AB000CF72C2600361836107F07EF9D8B9002349
:102AC0000793099307A9104807F054FBB0B9602396
:102AD00000934FF47A73019300230293049304222A
:102AE0006946094807F0E2F958B90748FFF79EFF21
:102AF0000BB05DF804FBFFF7E1FCE0E7FFF7DEFC5D
:102B0000E5E7FFF7DBFCF0E7A80A00240018004027
:102B100008B51A481A4B03601A4B43604FF48053B0
:102B200083604FF40053C3604FF4806303610C2350
:102B3000436100238361C36103624362836208F0DF
:102B4000BEFA70B900210D4808F08CFB60B9002175
:102B50000A4808F0ACFB50B9084808F064FB48B9D3
:102B600008BDFFF7ABFCEDE7FFF7A8FCEFE7FFF7C9
:102B7000A5FCF1E7FFF7A2FCF2E700BF780C002408
:102B800000500040A086010008B51748174B0360AD
:102B9000174B436000238360C36003610C224261D2
:102BA0008361C36103624362836208F088FA70B98B
:102BB00000210D4808F056FB60B900210A4808F0D2
:102BC00076FB50B9084808F02EFB48B908BDFFF75E
:102BD00075FCEDE7FFF772FCEFE7FFF76FFCF1E73D
:102BE000FFF76CFCF2E700BFE40B00240078004024
:102BF000A0680600F0B5BBB00446002135913691BF
:102C0000379138913991B82206A80DF005FC236858
:102C1000644A934204D0644A93426ED03BB0F0BD04
:102C200002220023CDE9062306A805F0BFFB0028F9
:102C30005DD15E4BD3F8E82042F48012C3F8E8205F
:102C4000D3F8E82002F480120192019AD3F8E02030
:102C500042F00202C3F8E020D3F8E02002F00202C2
:102C60000292029AD3F8E02042F00802C3F8E02072
:102C7000D3F8E03003F008030393039B4FF40053B1
:102C80003593022736970025379538950E233993CB
:102C900035AE3146464803F01FFD04233593369781
:102CA00037953895082339933146424803F014FD8F
:102CB0004148424B0360412343608560C5604FF447
:102CC0008063036145618561C5610562456201F00C
:102CD0007BFD78B9384BC4F880309C630022052115
:102CE000352001F04DFB352001F05AFB96E7FFF748
:102CF000E5FB9EE7FFF7E2FBECE702220023CDE9CC
:102D0000062306A805F052FB002845D1274BD3F82F
:102D1000E82042F08042C3F8E820D3F8E82002F02F
:102D200080420492049AD3F8E02042F01002C3F8E3
:102D3000E020D3F8E03003F010030593059B4FF437
:102D4000C0733593022336930025379538950723B2
:102D5000399335A91A4803F0BFFC1A481A4B03608F
:102D60004F2343608560C5604FF480630361456114
:102D70008561C5610562456201F026FD78B9114B98
:102D8000C4F880309C6300220521522001F0F8FA3B
:102D9000522001F005FB41E7FFF790FBB6E7FFF794
:102DA0008DFBECE7005000400078004000440258E2
:102DB00000040258000C02586C0B0024280002404A
:102DC00000100258F40A002410000240DFF834D04A
:102DD000FFF7BCFD0C480D490D4A002302E0D45812
:102DE000C4500433C4188C42F9D30A4A0A4C002355
:102DF00001E013600432A242FBD30DF097FBFFF712
:102E0000B3FB70470000052400000024B006002436
:102E1000081F0108B0060024407A0024FEE70000E5
:102E200010B588B000238DF807300EE04FF0600C2D
:102E300014E04FF0600C1EE04FF0600CC3F117047B
:102E400020346C4404F818CC0133072B21DC41FA00
:102E500003F414F0010FE9D04FF0780CC3F107042C
:102E600020346C4404F818CC40FA03F414F0010F39
:102E7000DFD04FF0780CC3F10F0420346C4404F819
:102E800018CC42FA03F414F0010FD5D04FF0780CAF
:102E9000D4E74FF6FF7300220DF107010E4806F04C
:102EA0000DFB0D4B93F88130012BFAD14FF6FF73D8
:102EB000182202A9084806F001FB002408E04FF69A
:102EC000FF7301220DF10701034806F0F7FA013400
:102ED000632CF4DD08B010BDD009002408B5072824
:102EE00023D8DFE800F004260A0E12161A1E014647
:102EF0000246FF20FFF794FF08BDFF22002108468D
:102F0000F8E7FF2211461046F4E70022114610466A
:102F1000F0E7FF2211460020ECE70022FF210846DF
:102F2000E8E7FF2200211046E4E7002211461046A0
:102F3000E0E70022FF211046DCE70000002304E068
:102F4000034A6421D1540133DBB20F2BF8D9704707
:102F5000100D0024014B00221A547047100D00245C
:102F6000002305E02449CA5C0132CA540133DBB2B4
:102F70000F2BF7D9204B1B78032B3AD91E4B042279
:102F80001A7001201C4B5B78012B04D940F0020021
:102F9000194B02225A70184B5B7A012B04D940F46A
:102FA0000070154B02225A72134B9B7B012B04D9E4
:102FB00040F48040104B02229A730F4B5B7B012B35
:102FC00004D940F400500C4B02225A730A4B1B7B6D
:102FD000012B04D940F48050074B02221A73064B90
:102FE000DB7A012B04D940F40060034B0222DA7231
:102FF00070470020C6E700BF100D002410F0010F3D
:1030000009D0074B00221A7010F0020F02D0054BB6
:1030100000221A707047024B01221A70F4E700BFB9
:103020000D0D00240C0D002410B58CB00B4CEC469B
:1030300004F10C0EBEE80F00ACE80F00BEE80F0074
:10304000ACE80F009EE80F008CE80F0094E80E003B
:10305000034800F0CBF90CB010BD00BF18000024ED
:10306000280D002408B50146014800F0F8FB08BD12
:10307000280D002410B52DED028B1B4C94ED238AF6
:10308000D4ED0E7A9FED197A77EEC77A9FED180A84
:1030900037EE800A0DF0B8FCDFED167A60EE277A85
:1030A0009FED157A20EE070A77EE807A134BC3ED79
:1030B000007AC4ED257ADFED127AB4EEE78AF1EEFC
:1030C00010FA01DDC4ED237A074B93ED237ADFED8F
:1030D0000D7AB4EEE77AF1EE10FA01D5C3ED237A5A
:1030E000BDEC028B10BD00BF280D00249A7C9740D8
:1030F000E4CB96406D8EB63E05C5B740200D00244A
:103100007593803F54E3E53E08B501469FED020B01
:10311000034800F00DFF08BD000000000000F03F74
:10312000280D002410B5094C204600F077FEA26956
:10313000237E13B1064B134003B910BD4FF08043FB
:103140000821A01DFEF738FEF7E700BF280D002478
:1031500000FFFF0008B501224FF40041014803F0D1
:10316000CCFB08BD0008025807EE900AB0EE407A8A
:10317000B8EE670AF2EE047A77EE277AB4EEE70A41
:10318000F1EE10FA0AD8F2EE047A77EE677AB4EE2E
:10319000E70AF1EE10FA01DBB0EE470A7047037858
:1031A000C82B01D0002070474378182B01D0002095
:1031B00070478378162B01D000207047C3780279BE
:1031C00043EA0223C3F30A030B80027943795B01CC
:1031D00043EAD203C3F30A034B80427983799B000D
:1031E00043EA9213C27943EA8223C3F30A038B8032
:1031F000C279037ADB0143EA5203C3F30A03CB80AB
:10320000027A437A1B0143EA1213C3F30A030B81C8
:10321000427A837A5B0043EAD213C27A43EA4223BA
:10322000C3F30A034B81C27A037B9B0143EA9203F7
:10323000C3F30A038B81027B437BDB0043EA521317
:10324000CB81837BC27B43EA0223C3F30A030B8255
:10325000C27B037C5B0143EAD203C3F30A034B82C4
:10326000027C437C9B0043EA9213827C43EA8223E4
:10327000C3F30A038B82827CC37CDB0143EA5203E3
:10328000C3F30A03CB82C27C037D1B0143EA121302
:10329000C3F30A030B83027D437D5B0043EAD21331
:1032A000827D43EA4223C3F30A034B83827DC37DBD
:1032B0009B0143EA9203C3F30A038B83C27D037E1F
:1032C000DB0043EA5213CB830120704784B010B572
:1032D0002DED048B06AC84E80F000E9C9FED408A18
:1032E000B0EE480ABDF81800FFF73EFF30EE480A7E
:1032F00030EE000ADFED3B8AC0EE287AC4ED027A98
:10330000B0EE480ABDF81A00FFF72EFF30EE480A6B
:1033100030EE000AC0EE287AC4ED037A9FED329AAF
:10332000B0EE490ABDF81C00FFF71EFF30EE490A57
:1033300030EE000AC0EE287AC4ED017AB0EE480AF9
:10334000BDF81E00FFF710FF30EE480A30EE000A0D
:10335000C0EE287AC4ED007ABDF82030BF2B12D021
:10336000B3F5E06F01D10323A374BDF8223040F21E
:10337000E53293421AD0B3F5E06F07D0BF2B07D1E7
:103380000223237404E00423A374EEE700232374D0
:10339000BDF8243040F2E53293421BD0B3F5E06F24
:1033A00007D0BF2B07D10223637404E001232374E9
:1033B000EEE700236374BDF82630BF2B0DD0B3F5C4
:1033C000E06F01D10323E374BDEC048BBDE8104032
:1033D00004B0704701236374EDE70423E374F3E75B
:1033E0000020784400A0CC4400002E4384B00DF1AE
:1033F000040C8CE80E009DF80430427863F3471209
:103400004270C3F3C102417862F301014170D243BB
:10341000017862F301010170C3F34111427861F355
:10342000C4024270027822F0C0020270D2B242F0AE
:1034300020020270D2B222F00C020270DB09427844
:1034400063F38202427083F00103027863F3041293
:1034500002709DF80520837862F3000383700023D7
:10346000C37083759DF8062002719DF80720427194
:10347000A0F84C300B9BC0F88C310023C0F8903181
:10348000C0F894310C9AC0F8D021C0F8D4310A9B0E
:10349000C367029BC0F82431039BC0F83031049B02
:1034A000C0F83431059BC0F83831069BC0F828318C
:1034B000079BC0F82C31089BC0F86831099BC0F805
:1034C0006C319DF8343080F810310E9BC0F89C3080
:1034D0000F9BC0F8A03004B07047000001380628E8
:1034E00030D8DFE800F0040C0C131A212800194B27
:1034F0000B60194B4B604FF083438B607047174B49
:103500000B60174B4B60174B8B607047164B0B6073
:10351000164B4B60164B8B607047164B0B60164B6F
:103520004B60164B8B607047154B0B60154B4B6017
:10353000154B8B607047124B0B60144B4B60144B58
:103540008B607047034B0B60034B4B604FF0834322
:103550008B60704700000442000060410000304270
:10356000000088410000B8410000A0410000704206
:1035700000002C42000070410000F0420000B44204
:10358000000048420000B0400000304100001042FE
:1035900000006442F8B52DED028B044690F834002B
:1035A000B4F83530DAB22179914203D00020BDEC75
:1035B000028BF8BDF0EE408AB0EE608A62798242FA
:1035C00001D00020F3E7C3F30522101E18BF01202D
:1035D000E17D60F38611E175E2759B0B227863F360
:1035E00083022270A07BE27B237C677C47EA03276F
:1035F000A37CE67C46EA0326217D637D43EA012520
:103600001021DFED150A9FED150A42EA002008F0AF
:103610007FFC84ED0E0A1021F0EE680AB1EE680A14
:10362000384608F075FC84ED0F0A1021F0EE480AC8
:10363000B1EE480A304608F06BFC84ED100A07EE44
:10364000905AF8EEE77AF2EE046A87EEA67A84EDF5
:10365000117A0120ABE700BFB81E4941B81E49C12D
:1036600090ED0E7AD0ED127A77EE677ADFED326A5E
:10367000F4EEE67AF1EE10FA04DDB0F94C30013BDD
:10368000A0F84C30DFED2D6AF4EEE67AF1EE10FA98
:1036900004D5B0F94C300133A0F84C30B0F94C30BF
:1036A00007EE903AF8EEE77ADFED236A67EEA67A46
:1036B0009FED236AC7EE866A9FED226AC7EE067AFF
:1036C00076EEA77AC0ED247A80ED127A9FED1E7A0D
:1036D00009230EE0591E03F1130200EB8202D2ED22
:1036E000007A143300EB8303C3ED007A37EE277AB8
:1036F000CBB2002BEED1D0ED0F7AC0ED147A37EEBD
:10370000877AB2EE046AC7EE066AC0ED1E6AD0ED93
:103710001F5A27EEA57AD0ED156AB7EE006A36EE8D
:10372000656A66EE866A37EE267A80ED207A87EE45
:10373000807A80ED227A7047B81E4941B81E49C18F
:10374000DB0F4940DB0FC94000000000B0F8353006
:103750001B0A1BD1C27B837B43EA02231BB247F2C5
:103760000502934205D047F22902934208D0002077
:103770007047827C037862F3010303700120704775
:10378000827C037862F304130370F7E7002070472C
:1037900090F834C0B0F83530DBB20A490A7801320B
:1037A0000A7002799A4201D000207047437963453C
:1037B00001D000207047C37D43F08003C375012012
:1037C000704700BF760F002403789B09012B14D0AB
:1037D000022B28D0002B35D1C3784F2B32D9037858
:1037E00013F0200F2ED0037823F020030370DBB2F8
:1037F000012262F38713037024E0C37D3F2B03D8BB
:10380000037843F020030370E1B1037813F0200F35
:1038100018D0037823F020030370DBB2022262F396
:10382000871303700EE0037803F00C03082B11D00C
:1038300041B9037843F020030370DBB2012262F345
:1038400087130370C37D3F2B03D9037843F0C00374
:1038500003707047037843F020030370E8E7837D2B
:10386000012B00D0704730B585B004460D46407836
:1038700001A94009FFF732FE94F8373003F01F0327
:10388000023B162B16D8DFE803F00C15151515159D
:1038900015151515151515151523151515271515B8
:1038A0000C00DDED020A9DED010A2046FFF772FED5
:1038B000012807D029462046FFF786FF0223A3757B
:1038C00005B030BD9DED010A2046FFF7C9FEF1E7C6
:1038D0002046FFF73BFFEDE72046FFF759FFE9E7FA
:1038E000437803F00303022B31D0032B36D0012B96
:1038F00024D090ED257A80ED0B7AD0ED237ADFEDA0
:10390000286A67EEA67AC0ED077AD0ED217A67EED5
:10391000807AC0ED087AB4EEE07AF1EE10FA01DDBB
:10392000C0ED0B0AD0ED0B7AF1EE600AF4EEE07A0E
:10393000F1EE10FA32D5C0ED0B0A7047D0ED237AC4
:103940009FED177A67EE877AC0ED077A7047D0ED62
:10395000217A67EE807AC0ED087A7047D0ED5C7A04
:1039600067EE817A90ED257A27EE017AC7EE206A1C
:1039700077EEA67AC0ED0C7AF4EEC17AF1EE10FA89
:1039800001DD80ED0C1AD0ED0C7AB1EE411AF4EEA7
:10399000C17AF1EE10FA01D580ED0C1A704700BF24
:1039A000DB0FC940037903764379A0F81930C37E51
:1039B000032262F30403C376DBB223F0E003C37691
:1039C000002304E0C218002191710133DBB2072B00
:1039D000F8D97047037903764379A0F81930C37E8C
:1039E000042262F30403C376DBB223F0E003C37660
:1039F000002306E0C2184FF0000C82F806C0013325
:103A0000DBB2072BF6D9012900D07047012383715F
:103A1000FBE790F801C0CCF3010C037903764379FE
:103A2000A0F81930C37E122262F30403C376DBB21E
:103A300023F0E003C376002304E0C2180021917153
:103A40000133DBB2072BF8D947F20503C38080F8B6
:103A50000AC07047037903764379A0F81930C37E12
:103A6000062262F30403C376DBB223F0E003C376DD
:103A7000002304E0C218002191710133DBB2072B4F
:103A8000F8D9012383717047037903764379A0F84D
:103A90001930C37E162262F30403C376DBB223F02F
:103AA000E003C376002304E01A460133DBB202448C
:103AB0009371072BF8D9704700230376826963F36B
:103AC00017228261C27E63F30402C276D2B263F32C
:103AD0004712C27604E0C218002191710133DBB2B3
:103AE000072BF8D97047037903764379A0F819308A
:103AF000C37E112262F30403C376DBB223F0E0033A
:103B0000C376002304E0C218002191710133DBB2B7
:103B1000072BF8D947F20503C38070472DE9F04F12
:103B20002DED028B83B00446F0EE408AB0EE608A41
:103B300010209FED301ADFED300A94ED070A08F0EF
:103B4000C3F907461FFA80FB1020B0EE681AF1EEA9
:103B5000680A94ED080A08F0B7F906461FFA80FAD9
:103B6000DFED268A10209FED261AF0EE680A94ED0C
:103B7000090A08F0A9F905461FFA80F91020B1EEEC
:103B8000041AF0EE680A94ED0A0A08F09DF9019013
:103B9000BDF804801020B0EE481AF1EE480A94ED0A
:103BA0000B0A08F091F923792376A4F81900E37E33
:103BB000012262F30403E376DBB223F0E003E37651
:103BC0004FEA1B2B84F806B0E7714FEA1A2A84F8F3
:103BD00008A066724FEA192984F80A90E5724FEA44
:103BE000182884F80C80019B637303B0BDEC028B32
:103BF000BDE8F08FB81E4941B81E49C10000000061
:103C00000000FA43037903764379A0F81930C37EA4
:103C1000122262F30403C376DBB223F0E003C3761F
:103C2000002304E0C218002191710133DBB2072B9D
:103C3000F8D947F21603C380C369C0F80A30704749
:103C4000037903764379A0F81930C37E122262F318
:103C50000403C376DBB223F0E003C376002304E061
:103C6000C218002191710133DBB2072BF8D947F25A
:103C70000A03C380036AC0F80A30704703790376E9
:103C80004379A0F81930C37E122262F30403C3768D
:103C9000DBB223F0E003C376002304E0C218002166
:103CA00091710133DBB2072BF8D947F20603C380C9
:103CB000036BC0F80A30704710B5044603789B09BF
:103CC000032B24D8DFE803F0029579A1427802F0B3
:103CD0000302037803F003039A4219D0C3780A2B36
:103CE00006D00F2B0BD0052B0BD1FFF7FCFE0BE002
:103CF000837D4BB1FFF78DFE0023A37504E0042301
:103D0000C3702046FFF7D8FEE3780133E37010BD9F
:103D1000837813F0010F34D0C378142B07D0192BFC
:103D200029D00F2B29D10021FFF754FEECE7837D2A
:103D3000002BE9D090F8373003F01F03022BE3D1BA
:103D4000D0ED0E7A9FED337AF4EEC77AF1EE10FAE9
:103D50000BD59FED317AF4EEC77AF1EE10FA04DD5F
:103D6000837823F00103837002E02046FFF772FEA0
:103D70000023A375C8E70E23C3702046FFF79CFEFF
:103D8000C2E7037813F0200F13D1C378232B05D09B
:103D9000642B06D02046FFF78FFEB5E7FFF774FED1
:103DA000B2E7037843F0200303700021FFF712FE0F
:103DB000F0E70021FFF70EFEA6E7037813F0200FCF
:103DC0000BD0437803F00303022B0CD0032B0DD050
:103DD000012B05D0FFF7A2FE99E7FFF7E3FD96E779
:103DE000FFF710FF93E7FFF72BFF90E7FFF746FF82
:103DF0008DE7037813F0200F03D10121FFF7EAFDCF
:103E000085E70021FFF7E6FD81E70021FFF7E2FDEE
:103E10007DE700BF6F12033A6F1203BA10B584B08A
:103E20000446407801A94009FFF758FB9DED031AAD
:103E3000DDED020A9DED010A2046FFF751FDDDEDA3
:103E4000020A9DED010A2046FFF736FF04B010BDBF
:103E500008B5D0F88430C0F81831D0F88830C0F8F0
:103E60001C3100F58C7008F01FFA08BD08B5D0F8B9
:103E70008C30C0F88031D0F89030C0F8843100F533
:103E8000C07008F011FA08BDD0B52DED048B0446C2
:103E900057EC106BB0EE418AD0ED237A77EEA77A1B
:103EA0009FED217A67EE877A17EE900AFCF774FB94
:103EB00041EC190B00221D4B30463946FCF7EEFC55
:103EC00041EC110BB0EE490AF0EE690A04F1A800CA
:103ED00008F032F8D4E94201FCF7C8FD07EE900A79
:103EE000C4F8980087EE887A84ED267AD4ED277A94
:103EF00027EE277A84ED267AD4ED287AB4EEE77A95
:103F0000F1EE10FA01DDC4ED267A94ED267AF1EE99
:103F1000677AB4EEE77AF1EE10FA01D5C4ED267AAD
:103F2000BDEC048BD0BD00BFDB0F494000408F408B
:103F300030B52DED028B85B004460D46437803F075
:103F40000303032B0DD045B9D4F89030C4F88C305E
:103F50000023C4F88430C4F8943005B0BDEC028B63
:103F600030BDB0EE408AF0EE608A407801A9400989
:103F7000FFF7B4FA6378C3F3C103022B1DD006D850
:103F8000012B1DD804F58C7008F02EFA18E0032BD5
:103F900016D12046FFF76AFF9DED011AB0EE480AE0
:103FA000F0EE680A2046FFF76FFFD4ED767A94EDC5
:103FB000267A77EE877AC4ED217A2046FFF748FF0C
:103FC000002DCAD1637803F01803182B06D0102BEC
:103FD000B9D104F58C7008F007FAB4E704F58C70D9
:103FE00008F002FA04F5C07008F0FEF9ABE700290A
:103FF00018BF002808D010B544683CB18368082277
:104000000078A04720B910BD012070470120FAE7D1
:104010000220F8E7C2F3072303700A70704720B14B
:10402000017042704360009B8360704700B330B5FD
:1040300083B01C46054643788DF800301A238DF86E
:1040400001308DF8021001A90DF10300FFF7E2FF26
:104050008DF80540BDF918200DF107010DF106009E
:10406000FFF7D8FF69462846FFF7C1FF03B030BD10
:104070000120704700B583B000230093FF23FFF7B2
:10408000D5FF03B05DF804FBD0B100B583B0437831
:104090008DF800302A238DF801308DF802100023AE
:1040A0008DF803308DF804308DF805208DF806303A
:1040B0008DF807306946FFF79AFF03B05DF804FBFF
:1040C0000120704708B5FF22FFF7DEFF08BD08B5E5
:1040D00000224A21FFF7CEFF08BD00B583B00902D8
:1040E00009B2114300910A23C4220221FFF79EFF67
:1040F00003B05DF804FB08B50A461021FFF7BAFFCC
:1041000008BD08B501220021FFF7B4FF08BD08B5BE
:1041100000221146FFF7AEFF08BD18B1007800F588
:10412000807070474FF48070704782B08DF8000047
:104130008DF80110BDF80030ADF8043000209DF876
:10414000043063F307009DF8053063F30F2002B0DD
:104150007047002A18BF002824D070B504460E46C8
:104160001546072B20D9FFF7D8FFB04201D0002019
:1041700070BD2A7863789A4201D00020F8E76B7806
:104180001B2B01D00020F3E7AA789DF810309A424B
:1041900001D00020ECE76A799DF811309A4205D0F1
:1041A0000020E5E7002070470020E1E70120DFE77D
:1041B000002A18BF002824D070B504460E461546C4
:1041C000072B20D9FFF7A9FFB04201D0002070BD16
:1041D0002A7863789A4201D00020F8E76B782B2B7D
:1041E00001D00020F3E7AA789DF810309A4201D060
:1041F0000020ECE76A799DF811309A4205D0002042
:10420000E5E7002070470020E1E70120DFE728B163
:10421000C278007940EA022000B27047002070475F
:1042200028B18279C07940EA022000B270470020AC
:104230007047000010B5032000F090F803F0F8FC80
:104240000F498B69C3F303230E4AD35C03F01F03AA
:10425000D8408B6903F00F03D35C03F01F0320FAEF
:1042600003F3094A1360094B18600F20FEF796FA12
:1042700010B10124204610BD0446FEF775FAF9E797
:1042800000440258AC1A0108100000241400002455
:10429000034B1B78034A11680B441360704700BF3F
:1042A00054000024780F0024014B1868704700BFA9
:1042B000780F002438B50446FFF7F6FF0546B4F141
:1042C000FF3F02D0044B1B781C44FFF7EDFF401B5F
:1042D000A042FAD338BD00BF54000024002807DBF9
:1042E00000F01F02400901239340024A42F82030A7
:1042F000704700BF00E100E0002804DB0901C9B2FB
:10430000044B1954704700F00F000901C9B2024B69
:104310001954704700E400E014ED00E000B500F02F
:104320000700C0F1070CBCF1040F28BF4FF0040CCC
:10433000031D062B0FD9C31E4FF0FF3E0EFA0CF0E3
:1043400021EA000199400EFA03FE22EA0E0241EA38
:1043500002005DF804FB0023EEE700000649CB688D
:1043600023F4E0631B041B0C000200F4E060034331
:10437000024A1A43CA60704700ED00E00000FA05E7
:1043800010B50446054BD868C0F30220FFF7C6FFFE
:1043900001462046FFF7B0FF10BD00BF00ED00E072
:1043A00008B5FFF79BFF08BDF0B4876D0468664E43
:1043B000664DAC4218BFB44242D01835AC423FD033
:1043C0001835AC423CD01835AC4239D01835AC4227
:1043D00036D01835AC4233D01835AC4230D005F564
:1043E0005675AC422CD01835AC4229D01835AC42A9
:1043F00026D01835AC4223D01835AC4220D0183521
:10440000AC421DD01835AC421AD01835AC4217D08A
:104410004F4DAC4214D01435AC4211D01435AC42DF
:104420000ED01435AC420BD01435AC4208D0143544
:10443000AC4205D01435AC4202D01435AC4207D1A1
:10444000446E856E6560C46E14B1046F456F65601F
:1044500004683D4E3D4DAC4218BFB44252D01835B1
:10446000AC424FD01835AC424CD01835AC4249D094
:104470001835AC4246D01835AC4243D01835AC4262
:1044800040D005F55675AC423CD01835AC4239D019
:104490001835AC4236D01835AC4233D01835AC4262
:1044A00030D01835AC422DD01835AC422AD0183552
:1044B000AC4227D0264E274DAC4218BFB44211D093
:1044C000254DAC420ED01435AC420BD01435AC4265
:1044D00008D01435AC4205D01435AC4202D01435A6
:1044E000AC4224D1C46D04F01F050124AC407C60B3
:1044F000046863608368402B20D003689960036878
:10450000DA6014E0C46D04F01F0C3F2404FA0CF4CC
:10451000BC6005682C6824F480242C600468636007
:104520008368402B05D0036899600368DA60F0BCAB
:10453000704703689A600368D960F8E703689A6077
:104540000368D960F3E700BF100002402800024072
:10455000085402581C540258305402580368274922
:10456000274A934218BF8B422FD0183293422CD047
:104570001832934229D01832934226D018329342EF
:1045800023D01832934220D0183293421DD002F526
:104590005672934219D01832934216D01832934271
:1045A00013D01832934210D0183293420DD01832E3
:1045B00093420AD01832934207D01832934204D063
:1045C00023F0FF038365806D704710B4D9B21039B2
:1045D0000C4AA2FB0142C2F302120B4CA25CC26560
:1045E0005F2907D96FF3090304338365806D5DF894
:1045F000044B70476FF309038365F7E7100002402F
:1046000028000240ABAAAAAABC1A010883699BB978
:10461000836A012B0AD0022B02D00BB10020704715
:10462000C36A13F0807F2AD100207047C36AB3F1B8
:10463000C07F26D000207047B3F5005F0AD0836AA0
:10464000022B26D9032B26D1C36A13F0807F24D1F5
:1046500000207047836A032B03D8DFE803F01404BB
:10466000140A00207047C36A13F0807F0DD1002028
:104670007047C36AB3F1C07F09D0002070470120A2
:1046800070470120704701207047012070470120CA
:1046900070470120704700207047012070470000DC
:1046A00003682149214A934218BF8B4227D0143214
:1046B000934224D01432934221D0143293421ED01C
:1046C000143293421BD01432934218D014329342C6
:1046D00015D0DAB2103A1649A1FB02121209154997
:1046E0001944A8291ED9144B13449B000366134B8D
:1046F000436602F01F020123934083667047DBB2DA
:10470000083B0F4AA2FB03230E4A02EB131292004E
:1047100002660D4A4266C3F30413012202FA03F350
:10472000836670470832DEE7085402581C5402586A
:10473000ABAAAAAAF0FBFDBF0082001080080240CD
:10474000CDCCCCCC009600168058025801794A1E78
:10475000072A2BD830B40368154D164CA34218BF56
:10476000AB4218D01434A34215D01434A34212D053
:104770001434A3420FD01434A3420CD01434A342F7
:1047800009D01434A34206D00B4B0B449B00C366E4
:104790000A4B036705E00A4B0B449B00C366094BB9
:1047A000036701239340436730BC7047704700BFE5
:1047B000085402581C5402583F820010400902401D
:1047C0003F9600164059025870B50446FFF76CFD3D
:1047D000002C00F0B781054623685349534A9342A1
:1047E00018BF8B420CBF0121002150D018329342D8
:1047F0004DD0183293424AD01832934247D01832E3
:10480000934244D01832934241D0183293423ED062
:1048100002F5567293423AD01832934237D018328A
:10482000934234D01832934231D0183293422ED072
:10483000183293422BD01832934228D01832934228
:1048400025D03B493B4A934218BF8B4200F032814E
:10485000394A934200F02E811432934200F02A81AB
:104860001432934200F026811432934200F02281E8
:104870001432934200F01E811432934200F01A81E8
:1048800040236365032384F8353001204AE0022287
:1048900084F83520002284F8342079BB274A9342DB
:1048A0002CD01832934229D01832934226D0183295
:1048B000934223D01832934220D0183293421DD015
:1048C00002F55672934219D01832934216D018321C
:1048D000934213D01832934210D0183293420DD025
:1048E000183293420AD01832934207D018329342BA
:1048F00004D01A6822F001021A6003E01A6822F05C
:1049000001021A6023681A6812F0010F18D0FFF72D
:10491000CBFC431B052BF5D920236365032384F8C7
:104920003530012070BD00BF100002402800024059
:10493000085402581C540258305402584000024097
:104940001A6881491140A268E06802432069024365
:1049500060690243A0690243E0690243206A02439E
:104960000A43616A042900F090806168522900F2CC
:1049700096803F29C0F08E803F39744820FA01F1BB
:1049800011F0010F01D042F480121A602668756997
:1049900025F00705636A1D43042B08D1A36A1D4354
:1049A000E36A23B12046FFF731FE00287CD1756110
:1049B0002046FFF7D3FDE36D03F01F023F23934032
:1049C000836023686249634A934218BF8B4242D096
:1049D000183293423FD0183293423CD0183293425F
:1049E00039D01832934236D01832934233D018322D
:1049F000934230D002F5567293422CD01832934233
:104A000029D01832934226D01832934223D018323C
:104A1000934220D0183293421DD0183293421AD0BC
:104A20001832934217D04C4A934214D01432934216
:104A300011D0143293420ED0143293420BD0143260
:104A4000934208D01432934205D01432934202D0DC
:104A50001432934213D12046FFF722FEA368802B25
:104A600063D0236E22791A60636EA26E5A60636807
:104A7000013B072B5CD90023E366236763670020B3
:104A80006065012384F835304CE7E16A206B01430F
:104A90000A436AE7293905293FF677AF73E7743986
:104AA00003293FF672AF6EE740236365012084F867
:104AB000350037E7022284F83520002284F83420BC
:104AC00019686FF31011A268402A2CD0802A27D0D1
:104AD0000022E06842EAD002206942EAD00260691E
:104AE00042EAD002A06942EAD002E06942EAD0027A
:104AF000206A42EA10120A431A602268174B1344D4
:104B0000174AA2FB03231B099B00E3652046FFF71E
:104B100025FDE26D02F01F0101228A40426050E74C
:104B20004FF48042D5E71022D3E70023636098E773
:104B30002046FFF70BFEE36E00221A60236F626FC0
:104B40005A609CE70120EDE63F8010FE0F030F0046
:104B5000100002402800024008540258F8ABFDA79C
:104B6000CDCCCCCC002800F03D8170B5044690F847
:104B70003400012800F03881012084F8340094F8D2
:104B80003500012807D04FF400636365002384F8E3
:104B90003430012070BD022084F8350000206065AB
:104BA0002068924E924DA84218BFB0422FD01835BF
:104BB000A8422CD01835A84229D01835A84226D0B2
:104BC0001835A84223D01835A84220D01835A8425D
:104BD0001DD005F55675A84219D01835A84216D033
:104BE0001835A84213D01835A84210D01835A8425D
:104BF0000DD01835A8420AD01835A84207D018356C
:104C0000A84204D0056825F00105056003E00568A9
:104C100025F0010505602046FFF7C6FB23687349B0
:104C2000734A934218BF8B4238D01832934235D022
:104C30001832934232D0183293422FD01832934216
:104C40002CD01832934229D01832934226D002F544
:104C50005672934222D0183293421FD01832934298
:104C60001CD01832934219D01832934216D0183201
:104C7000934213D01832934210D0183293420DD081
:104C80001A6822F00E0242F00A021A60236C93B1F5
:104C90002268136843F0040313600CE01A6822F0E2
:104CA0001E0242F016021A60236C23B122681368B8
:104CB00043F00803136023684C494D4A934218BFE0
:104CC0008B4242D0183293423FD0183293423CD0AC
:104CD0001832934239D01832934236D01832934268
:104CE00033D01832934230D002F5567293422CD012
:104CF0001832934229D01832934226D01832934268
:104D000023D01832934220D0183293421DD018324B
:104D100093421AD01832934217D0364A934214D095
:104D20001432934211D0143293420ED01432934273
:104D30000BD01432934208D01432934205D014326F
:104D4000934202D0143293420ED1236E1A6812F4A9
:104D5000803F03D01A6842F480721A60E36E1BB180
:104D60001A6842F480721A6023682049204A9342EC
:104D700018BF8B4230D0183293422DD01832934254
:104D80002AD01832934227D01832934224D01832B6
:104D9000934221D0183293421ED002F556729342AC
:104DA0001AD01832934217D01832934214D01832C6
:104DB000934211D0183293420ED0183293420BD046
:104DC0001832934208D01832934205D01A6842F044
:104DD00001021A600020DDE61A6842F001021A6042
:104DE0000020D7E6012070470220D3E610000240E1
:104DF000280002400854025870B50446FFF754FAE0
:104E0000002C00F08F81054694F83530022B06D037
:104E100080236365002384F83430012070BD23684B
:104E20008B498C4A934218BF8B4230D01832934240
:104E30002DD0183293422AD01832934227D01832FC
:104E4000934224D01832934221D0183293421ED07C
:104E500002F5567293421AD01832934217D0183284
:104E6000934214D01832934211D0183293420ED08C
:104E7000183293420BD01832934208D01832934222
:104E800005D01A6822F00E021A60266809E01A6836
:104E900022F01E021A602268536923F080035361D6
:104EA000266823686A496B4A934218BF8B4242D0F6
:104EB000183293423FD0183293423CD0183293427A
:104EC00039D01832934236D01832934233D0183248
:104ED000934230D002F5567293422CD0183293424E
:104EE00029D01832934226D01832934223D0183258
:104EF000934220D0183293421DD0183293421AD0D8
:104F00001832934217D0544A934214D01432934229
:104F100011D0143293420ED0143293420BD014327B
:104F2000934208D01432934205D01432934202D0F7
:104F30001432934204D1226E136823F480731360F9
:104F400023684349434A934218BF8B422FD01832FB
:104F500093422CD01832934229D01832934226D053
:104F60001832934223D01832934220D01832934201
:104F70001DD002F55672934219D01832934216D0C2
:104F80001832934213D01832934210D01832934201
:104F90000DD0183293420AD01832934207D01832FB
:104FA000934204D01A6822F001021A6003E01A68E2
:104FB00022F001021A60336813F0010F0ED0FFF7E0
:104FC00073F9431B052BF6D920236365032384F86B
:104FD0003530002384F8343001201FE723681C4952
:104FE0001C4A934218BF8B4238D01832934235D0B6
:104FF0001832934232D0183293422FD01832934253
:105000002CD01832934229D01832934226D002F580
:105010005672934222D0183293421FD018329342D4
:105020001CD01832934219D01832934216D018323D
:10503000934213D01832934210D0183293420DD0BD
:10504000A16DE36D03F01F02012393404B600CE060
:10505000100002402800024008540258A16DE36D80
:1050600003F01F023F2393408B6023682E492F4A91
:10507000934218BF8B4242D0183293423FD018322D
:1050800093423CD01832934239D01832934236D0F2
:105090001832934233D01832934230D002F5567210
:1050A00093422CD01832934229D01832934226D002
:1050B0001832934223D01832934220D018329342B0
:1050C0001DD0183293421AD01832934217D0184A82
:1050D000934214D01432934211D0143293420ED022
:1050E000143293420BD01432934208D014329342BC
:1050F00005D01432934202D0143293420BD1636E26
:10510000A26E5A60E36E33B11A6822F480721A609C
:10511000236F626F5A60012384F83530002084F8D1
:1051200034007BE6012079E61000024028000240AE
:1051300008540258002800F0278108B5024690F86C
:105140003530022B03D080234365012008BD03685E
:105150008F4890498B4218BF83420CBF012000202A
:1051600065D018318B4262D018318B425FD0183134
:105170008B425CD018318B4259D018318B4256D0BB
:1051800018318B4253D001F556718B424FD01831F4
:105190008B424CD018318B4249D018318B4246D0CB
:1051A00018318B4243D018318B4240D018318B429A
:1051B0003DD018318B423AD0196821F00E011960A8
:1051C0001368734873498B4218BF83426AD072498F
:1051D0008B4267D018318B4264D018318B4261D03A
:1051E00018318B425ED018318B425BD018318B4224
:1051F00058D001F556718B4254D018318B4251D0A2
:1052000018318B424ED018318B424BD018318B4223
:1052100048D018318B4245D018318B4242D01831DA
:105220008B423FD0196821F0010119603EE0042152
:1052300082F8351080BB584A93422DD018329342E1
:105240002AD01832934227D01832934224D01832F1
:10525000934221D0183293421ED002F556729342E7
:105260001AD01832934217D01832934214D0183201
:10527000934211D0183293420ED0183293420BD081
:105280001832934208D01832934205D01A6822F09F
:1052900001021A60002059E71A6822F001021A6020
:1052A000002053E7196821F001011960136838489C
:1052B00038498B4218BF834242D018318B423FD0CD
:1052C00018318B423CD018318B4239D018318B4287
:1052D00036D018318B4233D018318B4230D001F5A3
:1052E00056718B422CD018318B4229D018318B4209
:1052F00026D018318B4223D018318B4220D0183160
:105300008B421DD018318B421AD018318B4217D0E6
:1053100022498B4214D014318B4211D014318B426C
:105320000ED014318B420BD014318B4208D0143183
:105330008B4205D014318B4202D014318B4217D1ED
:10534000116E0B6823F480730B60906DD36D03F0C6
:105350001F0101238B404360536E916E5960D36EE1
:1053600033B1196821F480711960136F516F59605E
:10537000012382F83530002382F83430136D2BB1CD
:10538000104698470020E1E6012070470020DDE646
:105390001000024028000240400002400854025819
:1053A000F0B583B00446002301937D4B1D687D4B0F
:1053B000A3FB0535AD0A876D3E68D7F800C00368CA
:1053C00079497A48834218BF8B420CBF01200020E4
:1053D00061D0774A93425ED0183293425BD0183244
:1053E000934258D01832934255D01832934252D03B
:1053F000183293424FD002F5567293424BD0183276
:10540000934248D01832934245D01832934242D04A
:10541000183293423FD0183293423CD01832934214
:1054200039D01832934236D06249634A934218BF4A
:105430008B4212D0614A93420FD0143293420CD067
:105440001432934209D01432934206D0143293425C
:1054500003D01432934240F05F821A68E16D01F08C
:105460001F010420884010EA0C0F00F0A58212F002
:10547000040F00F0A182786012F4004F00F058820F
:1054800012F4803F40F04E82A36C002B00F0448267
:105490002046984740E2E26D02F01F0108228A4050
:1054A000324241D070BB424A93422BD018329342D1
:1054B00028D01832934225D01832934222D0183285
:1054C00093421FD0183293421CD002F55672934279
:1054D00018D01832934215D01832934212D0183295
:1054E00093420FD0183293420CD01832934209D015
:1054F0001832934206D01832934203D01A68C2F38E
:10550000C00202E01A68C2F380026AB11A6822F08F
:1055100004021A60E36D03F01F0208239340BB608E
:10552000636D43F001036365E26D02F01F0226FA2A
:1055300002F313F0010F47D023681B481B498B422D
:1055400018BF83423CD018318B4239D018318B427E
:1055500036D018318B4233D018318B4230D01831CD
:105560008B422DD018318B422AD001F556718B42D7
:1055700026D018318B4223D018318B4220D01831DD
:105580008B421DD018318B421AD018318B4217D064
:1055900018318B4214D018318B4211D01B6813E0A4
:1055A00014000024B5814E1B100002402800024068
:1055B00040000240085402581C540258305402580B
:1055C0005B6913F0800F3BD1E36D03F01F030422EE
:1055D00002FA03F333423FD02268954895498A4244
:1055E00018BF824234D018318A4231D018318A42F1
:1055F0002ED018318A422BD018318A4228D0183147
:105600008A4225D018318A4222D001F556718A4249
:105610001ED018318A421BD018318A4218D0183156
:105620008A4215D018318A4212D018318A420FD0DE
:1056300018318A420CD018318A4209D013680BE025
:1056400001239340BB60636D43F002036365BBE7D6
:10565000126812F0020F3DD1E36D03F01F03102218
:1056600002FA03F333425FD02268714871498A42DB
:1056700018BF824234D018318A4231D018318A4260
:105680002ED018318A422BD018318A4228D01831B6
:105690008A4225D018318A4222D001F556718A42B9
:1056A0001ED018318A421BD018318A4218D01831C6
:1056B0008A4215D018318A4212D018318A420FD04E
:1056C00018318A420CD018318A4209D01268C2F3CC
:1056D000800208E0BB60636D43F004036365BBE7D1
:1056E0001268C2F3C002FAB1BB6023681A6812F4F0
:1056F000802F0DD01B6813F4002F04D1236C9BB1B5
:105700002046984710E0A36C73B1204698470BE001
:105710001A6812F4807F03D11A6822F008021A6016
:10572000236C0BB120469847E36D03F01F03202242
:1057300002FA03F3334200F0918022683C483D496D
:105740008A4218BF82422ED018318A422BD018319B
:105750008A4228D018318A4225D018318A4222D074
:1057600018318A421FD018318A421CD001F5567177
:105770008A4218D018318A4215D018318A4212D084
:1057800018318A420FD018318A420CD018318A421F
:1057900009D018318A4206D018318A4203D01268E3
:1057A000C2F3400202E01268C2F30012002A55D090
:1057B000BB6094F83530042B0ED023681A6812F4BD
:1057C000802F39D01B6813F4002F2CD1636C002B71
:1057D00044D02046984741E02268136823F016031E
:1057E00013602268536923F080035361236CB3B1C3
:1057F0002268136823F008031360E36D03F01F02AF
:105800003F239340BB60012384F83530002384F8A4
:105810003430236D002B7FD0204698477CE0A36C6A
:10582000002BE5D1E9E7E36BC3B12046984715E0CB
:1058300010000240280002401A6812F4807F09D14B
:105840001A6822F010021A60012384F83530002310
:1058500084F83430E36B0BB120469847636D002B1E
:105860005AD0636D13F0010F52D0042384F8353001
:1058700023689649964A934218BF8B422FD018321C
:1058800093422CD01832934229D01832934226D01A
:105890001832934223D01832934220D018329342C8
:1058A0001DD002F55672934219D01832934216D089
:1058B0001832934213D01832934210D018329342C8
:1058C0000DD0183293420AD01832934207D01832C2
:1058D000934204D01A6822F001021A6003E01A68A9
:1058E00022F001021A60019B01330193AB4204D8FC
:1058F00023681B6813F0010FF5D123681B6813F0B0
:10590000010F0BD0032384F83530002384F83430A2
:10591000E36C0BB12046984703B0F0BD012384F837
:105920003530F2E7236C002BF6D020469847F3E79A
:1059300012F0200F3AD123686449654A934218BF98
:105940008B422FD0183293422CD01832934229D058
:105950001832934226D01832934223D01832934201
:1059600020D0183293421DD002F55672934219D0BE
:105970001832934216D01832934213D01832934201
:1059800010D0183293420DD0183293420AD01832F8
:10599000934207D01832934204D01A6822F00402CE
:1059A0001A6003E01A6822F008021A60236C002BC8
:1059B000B2D020469847AFE70220884010EA0C0F8B
:1059C00060D012F0020F5DD0786012F4004F0ED05C
:1059D00012F4803F05D1636C002B9DD02046984780
:1059E0009AE7E36B002B97D02046984794E712F094
:1059F000200F40D123683549354A934218BF8B4266
:105A00002FD0183293422CD01832934229D018321A
:105A1000934226D01832934223D01832934220D09A
:105A2000183293421DD002F55672934219D01832A3
:105A3000934216D01832934213D01832934210D0AA
:105A4000183293420DD0183293420AD01832934242
:105A500007D01832934204D01A6822F00A021A6062
:105A600003E01A6822F014021A60012384F835302A
:105A7000002384F83430E36B002B3FF44DAF204615
:105A8000984749E7082000FA01F111EA0C0F3FF4AA
:105A900043AF12F0080F3FF43FAF1A6822F00E0236
:105AA0001A60E36D03F01F03012202FA03F37B6027
:105AB000626584F83520002384F83430E36C002BD1
:105AC0003FF42AAF2046984726E700BF1000024067
:105AD0002800024030B4416B0468D4F884306F4A27
