:020000040800F2
:100000000000052475290008E1230008E323000807
:10001000E5230008E7230008E923000800000000AA
:1000200000000000000000000000000081D4000873
:10003000EB2300080000000021D5000843D0000891
:10004000C5290008C5290008C5290008C5290008D8
:10005000C5290008C5290008C5290008C5290008C8
:10006000C5290008C5290008C5290008ED23000896
:10007000FD230008C5290008C5290008C529000876
:10008000C5290008C5290008C52900080D24000855
:100090001D2400082D2400083D240008C52900085F
:1000A000C5290008C5290008C5290008C529000878
:1000B000C5290008C5290008C5290008C529000868
:1000C000C5290008C5290008C5290008C529000858
:1000D000C5290008C5290008C5290008C529000848
:1000E000C5290008C529000800000000C52900082E
:1000F000C52900084D240008C5290008C5290008A5
:10010000C5290008C5290008C5290008C529000817
:10011000C52900085D240008C5290008C529000874
:10012000C5290008C5290008C5290008C5290008F7
:10013000C5290008C5290008C5290008C5290008E7
:1001400000000000000000000000000000000000AF
:10015000C5290008C5290008C5290008C5290008C7
:10016000C5290008C5290008C5290008C5290008B7
:10017000C52900086D240008C529000800000000FA
:10018000C5290008C52900087D240008C5290008E4
:10019000C5290008C5290008C5290008C529000887
:1001A000C5290008C5290008C5290008000000006D
:1001B000C5290008C5290008C5290008C529000867
:1001C000C5290008C5290008000000000000000043
:1001D0000000000000000000C52900080000000029
:1001E000000000000000000000000000000000000F
:1001F0000000000000000000C5290008C529000813
:10020000C5290008C529000800000000C52900080C
:10021000C5290008C5290008C5290008C529000806
:10022000C529000800000000C529000800000000E2
:10023000C5290008C529000800000000C5290008DC
:10024000C5290008C5290008C5290008C5290008D6
:10025000C5290008C5290008C5290008C5290008C6
:10026000C5290008C5290008C5290008C5290008B6
:10027000C5290008C5290008C5290008000000009C
:10028000C5290008C5290008C5290008C529000896
:1002900000000000C5290008C52900080000000072
:1002A00000000000C5290008C5290008C52900086C
:1002B000C5290008C5290008C52900088D240008A3
:0C02C0009D240008C5290008C52900087D
:1002D00081F0004102E000BF83F0004330B54FEAF7
:1002E00041044FEA430594EA050F08BF90EA020F64
:1002F0001FBF54EA000C55EA020C7FEA645C7FEAF7
:10030000655C00F0E2804FEA5454D4EB5555B8BF19
:100310006D420CDD2C4480EA020281EA030382EA8A
:10032000000083EA010180EA020281EA0303362D1C
:1003300088BF30BD11F0004F4FEA01314FF4801CEF
:100340004CEA113102D0404261EB410113F0004F01
:100350004FEA03334CEA133302D0524263EB4303B8
:1003600094EA050F00F0A780A4F10104D5F1200E56
:100370000DDB02FA0EFC22FA05F2801841F10001B1
:1003800003FA0EF2801843FA05F359410EE0A5F185
:1003900020050EF1200E012A03FA0EFC28BF4CF0B6
:1003A000020C43FA05F3C01851EBE37101F000456C
:1003B00007D54FF0000EDCF1000C7EEB00006EEB79
:1003C0000101B1F5801F1BD3B1F5001F0CD3490803
:1003D0005FEA30004FEA3C0C04F101044FEA44525A
:1003E00012F5800F80F09A80BCF1004F08BF5FEAE1
:1003F000500C50F1000041EB045141EA050130BDC1
:100400005FEA4C0C404141EB0101013C28BFB1F5D2
:10041000801FE9D291F0000F04BF01460020B1FA1D
:1004200081F308BF2033A3F10B03B3F120020CDAF0
:100430000C3208DD02F1140CC2F10C0201FA0CF0CE
:1004400021FA02F10CE002F11402D8BFC2F1200C33
:1004500001FA02F120FA0CFCDCBF41EA0C019040E9
:10046000E41AA2BF01EB0451294330BD6FEA040432
:100470001F3C1CDA0C340EDC04F11404C4F120021D
:1004800020FA04F001FA02F340EA030021FA04F32F
:1004900045EA030130BDC4F10C04C4F1200220FA86
:1004A00002F001FA04F340EA0300294630BD21FAC4
:1004B00004F0294630BD94F0000F83F4801306BF8A
:1004C00081F480110134013D4EE77FEA645C18BF7E
:1004D0007FEA655C29D094EA050F08BF90EA020F15
:1004E00005D054EA000C04BF1946104630BD91EA0D
:1004F000030F1EBF0021002030BD5FEA545C05D110
:100500004000494128BF41F0004130BD14F580044E
:100510003CBF01F5801130BD01F0004545F0FE41C2
:1005200041F470014FF0000030BD7FEA645C1ABFF7
:10053000194610467FEA655C1CBF0B46024650EA2E
:10054000013406BF52EA033591EA030F41F400215A
:1005500030BD00BF90F0000F04BF0021704730B5E0
:100560004FF4806404F132044FF000054FF00001B5
:1005700050E700BF90F0000F04BF0021704730B576
:100580004FF4806404F1320410F0004548BF40424B
:100590004FF000013EE700BF42004FEAE2014FEAA0
:1005A00031014FEA02701FBF12F07F4393F07F4F7B
:1005B00081F06051704732F07F4208BF704793F07E
:1005C0007F4F04BF41F40021704730B54FF4607491
:1005D00001F0004521F000411CE700BF50EA010294
:1005E00008BF704730B54FF000050AE050EA01023D
:1005F00008BF704730B511F0004502D5404261EBAD
:1006000041014FF4806404F132045FEA915C3FF4ED
:10061000D8AE4FF003025FEADC0C18BF03325FEA8A
:10062000DC0C18BF033202EBDC02C2F1200300FA3B
:1006300003FC20FA02F001FA03FE40EA0E0021FA60
:1006400002F11444BDE600BF70B54FF0FF0C4CF44E
:10065000E06C1CEA11541DBF1CEA135594EA0C0F00
:1006600095EA0C0F00F0DEF82C4481EA030621EA3B
:100670004C5123EA4C5350EA013518BF52EA033576
:1006800041F4801143F4801338D0A0FB02CE4FF028
:100690000005E1FB02E506F00042E0FB03E54FF058
:1006A0000006E1FB03569CF0000F18BF4EF0010E50
:1006B000A4F1FF04B6F5007F64F5407404D25FEA4C
:1006C0004E0E6D4146EB060642EAC62141EA5551FF
:1006D0004FEAC52040EA5E504FEACE2EB4F1FD0C41
:1006E00088BFBCF5E06F1ED8BEF1004F08BF5FEABF
:1006F000500E50F1000041EB045170BD06F0004671
:1007000046EA010140EA020081EA0301B4EB5C041D
:10071000C2BFD4EB0C0541EA045170BD41F4801115
:100720004FF0000E013C00F3AB8014F1360FDEBF3A
:10073000002001F0004170BDC4F10004203C35DA16
:100740000C341BDC04F11404C4F1200500FA05F399
:1007500020FA04F001FA05F240EA020001F000423A
:1007600021F0004110EBD37021FA04F642EB0601B0
:100770005EEA430E08BF20EAD37070BDC4F10C04DA
:10078000C4F1200500FA04F320FA05F001FA04F29E
:1007900040EA020001F0004110EBD37041F100018A
:1007A0005EEA430E08BF20EAD37070BDC4F1200595
:1007B00000FA05F24EEA020E20FA04F301FA05F2FD
:1007C00043EA020321FA04F001F0004121FA04F2A5
:1007D00020EA020000EBD3705EEA430E08BF20EA75
:1007E000D37070BD94F0000F0FD101F000464000AF
:1007F00041EB010111F4801F08BF013CF7D041EA31
:10080000060195F0000F18BF704703F00046520034
:1008100043EB030313F4801F08BF013DF7D043EA05
:100820000603704794EA0C0F0CEA135518BF95EABB
:100830000C0F0CD050EA410618BF52EA4306D1D142
:1008400081EA030101F000414FF0000070BD50EA61
:10085000410606BF1046194652EA430619D094EAEB
:100860000C0F02D150EA013613D195EA0C0F05D1D5
:1008700052EA03361CBF104619460AD181EA030129
:1008800001F0004141F0FE4141F470014FF00000E1
:1008900070BD41F0FE4141F4780170BD70B54FF07C
:1008A000FF0C4CF4E06C1CEA11541DBF1CEA1355FC
:1008B00094EA0C0F95EA0C0F00F0A7F8A4EB0504DE
:1008C00081EA030E52EA03354FEA013100F08880D5
:1008D0004FEA03334FF0805545EA131343EA12639E
:1008E0004FEA022245EA111545EA10654FEA002653
:1008F0000EF000419D4208BF964244F1FD0404F50C
:10090000407402D25B084FEA3202B61A65EB030567
:100910005B084FEA32024FF480104FF4002CB6EB24
:10092000020E75EB030E22BFB61A754640EA0C00A4
:100930005B084FEA3202B6EB020E75EB030E22BFE4
:10094000B61A754640EA5C005B084FEA3202B6EB25
:10095000020E75EB030E22BFB61A754640EA9C00E4
:100960005B084FEA3202B6EB020E75EB030E22BFB4
:10097000B61A754640EADC0055EA060E18D04FEA72
:10098000051545EA16754FEA06164FEAC30343EA12
:1009900052734FEAC2025FEA1C1CC0D111F4801FDF
:1009A0000BD141EA00014FF000004FF0004CB6E7D8
:1009B00011F4801F04BF01430020B4F1FD0C88BF77
:1009C000BCF5E06F3FF6AFAEB5EB030C04BFB6EB82
:1009D000020C5FEA500C50F1000041EB045170BD75
:1009E0000EF0004E4EEA113114EB5C04C2BFD4EBA2
:1009F0000C0541EA045170BD41F480114FF0000E26
:100A0000013C90E645EA060E8DE60CEA135594EAA1
:100A10000C0F08BF95EA0C0F3FF43BAF94EA0C0FA4
:100A20000AD150EA01347FF434AF95EA0C0F7FF419
:100A300025AF104619462CE795EA0C0F06D152EA6D
:100A400003353FF4FDAE1046194622E750EA410651
:100A500018BF52EA43067FF4C5AE50EA41047FF462
:100A60000DAF52EA43057FF4EBAE12E74FEA4102C5
:100A7000B2F1E04324BFB3F5001CDCF1FE5C0DD9FC
:100A800001F0004C4FEAC0024CEA5070B2F1004F46
:100A900040EB830008BF20F00100704711F0804F49
:100AA00021D113F13872BCBF01F00040704741F40E
:100AB00080114FEA5252C2F11802C2F1200C10FA12
:100AC0000CF320FA02F018BF40F001004FEAC123F6
:100AD0004FEAD32303FA0CFC40EA0C0023FA02F39A
:100AE0004FEA4303CCE77FEA625307D150EA013370
:100AF0001EBF4FF0FE4040F44000704701F0004040
:100B000040F0FE4040F40000704700BF53B94AB9BE
:100B1000002908BF00281CBF4FF0FF314FF0FF3005
:100B200000F00CB8ADF1080C6DE904CE0EF0E2FF58
:100B3000DDF804E0DDE9022304B07047704700BF30
:100B4000844641EA000313F003036DD1403A41D3D8
:100B500051F8043B40F8043B51F8043B40F8043B97
:100B600051F8043B40F8043B51F8043B40F8043B87
:100B700051F8043B40F8043B51F8043B40F8043B77
:100B800051F8043B40F8043B51F8043B40F8043B67
:100B900051F8043B40F8043B51F8043B40F8043B57
:100BA00051F8043B40F8043B51F8043B40F8043B47
:100BB00051F8043B40F8043B51F8043B40F8043B37
:100BC00051F8043B40F8043B51F8043B40F8043B27
:100BD000403ABDD2303211D351F8043B40F8043BC7
:100BE00051F8043B40F8043B51F8043B40F8043B07
:100BF00051F8043B40F8043B103AEDD20C3205D3D7
:100C000051F8043B40F8043B043AF9D2043208D0CE
:100C1000D2071CBF11F8013B00F8013B01D30B8840
:100C200003806046704700BF082A13D38B078DD01E
:100C300010F003038AD0C3F10403D21ADB071CBFF0
:100C400011F8013B00F8013B80D331F8023B20F85A
:100C5000023B7BE7043AD9D3013A11F8013B00F893
:100C6000013BF9D20B7803704B7843708B7883701B
:100C7000604670470348044B834202D0034B03B1E4
:100C800018477047A8060024A806002400000000AA
:100C90000548064B1B1AD90F01EBA301491002D0DE
:100CA000034B03B118477047A8060024A806002488
:100CB0000000000010B5064C237843B9FFF7DAFFB7
:100CC000044B13B10448AFF300800123237010BD1F
:100CD000A8060024000000006412010808B5054BB6
:100CE0001BB105490548AFF30080BDE80840FFF798
:100CF000CFBF00BF00000000AC0600246412010852
:100D0000044B5B69C31A044880FB0320DB17A3EB89
:100D1000E010704768070024D34D6210024B5B69F6
:100D2000024A02FB003070476807002430F8FFFFDA
:100D3000074B5B68002B02DD054B00225A60044B19
:100D40005B6813F5967F02DA014B024A5A607047DE
:100D500000000024D4FEFFFF124B1870124BC3F8A2
:100D60009410022818BF04281AD0B0F1080318BF45
:100D70000123062814D09BB1B0F10E0318BF012344
:100D80000C280DD063B1B0F1140318BF0123112852
:100D900006D02BB1182803D0034B002283F89020F3
:100DA000704700BF64070024C406002400B583B068
:100DB000ADF80430074B83F8931083F89020BDF80A
:100DC0000420A3F891200499FFF7C6FF03B05DF853
:100DD00004FB00BFC4060024044BD3F89430C01AAF
:100DE000092801D90120704700207047C40600245B
:100DF00038B501461548C368DA1704691D1B62EB54
:100E0000E472002A10DB114B5D62114AD2F898207F
:100E10008A1A1A625A6A0F4B9A4207D80B4B1A6AFF
:100E20000D4B9A420AD838BDE51AECE7084B04226C
:100E300083F89C201020FFF78FFFF4E7044B032278
:100E400083F89C201020FFF787FFECE76807002459
:100E5000C4060024BF2709008F5F010038B505468E
:100E60000C46104B93F82D301BB10E4B5B8D1BB213
:100E700053B90C4B83F83350002283F82E202146BF
:100E80001B20FFF769FF38BD0021074802F007FF6C
:100E900018B9044A536801335360024B00225A8543
:100EA000E7E700BF68070024C406002408B50D4B1F
:100EB000D3F89430C31AB3F5967F0DD30146094B8E
:100EC00093F89D30022B08D8064A013382F89D30F2
:100ED00092F89300FFF740FF08BD0220FFF7BEFF26
:100EE000FAE700BFC406002408B528B9054A5368CC
:100EF00001335360012008BD0120FFF7AFFF002040
:100F0000F9E700BF6807002410B50446174B93F8B3
:100F1000323043B103F0FF02012A21D05821144896
:100F200002F0A4FE08E06FF0F901114802F0B7FEEC
:100F30000E4B4FF606725A852146FFF7D5FF70B16A
:100F40000A4890F8323001330A4AA2FB031202F435
:100F5000FF7101EB52029B1ADBB280F8323010BDF8
:100F6000E922E821024802F063FEE5E76807002471
:100F7000C4060024ABAAAAAA38B50446224B586876
:100F8000FFF7CCFE214BDB68C31A83EAE372A2EBC6
:100F9000E372B2F5FA6F03DD002B12DD642500E089
:100FA0000025194B5A68194BDA6193F8323003F077
:100FB000FF024BB1012A21D0E421154802F056FE70
:100FC00008E06FF06305ECE72946114802F067FE80
:100FD0000E4B5D852146FFF787FF70B10B4890F8F7
:100FE000323001330B4AA2FB031202F4FF7101EB12
:100FF00052029B1ADBB280F8323038BDE922E82178
:10100000034802F015FEE5E700000024680700240D
:10101000C4060024ABAAAAAA002800F052812DE938
:10102000F04186B00E4604460546A64A13680133D1
:10103000136055F8057B90F80480FF21582002F0DA
:1010400048FEADF80C00ADF8000043462A4639468C
:101050009D4802F081FE88B3237AA3B90122994BFF
:1010600083F82F20637A83B90122964B83F83020CE
:10107000964B1B780C2B0AD0944B1B780F2B0FD060
:1010800006B0BDE8F0810022E9E70022EDE78E4BD3
:10109000002283F89D2031460D20FFF75DFEEFE72B
:1010A000884B93F82F30002BEAD0874B002283F82F
:1010B0009C2031461020FFF74FFEE1E7276894F8A7
:1010C0000480E921E82002F004FEADF81000ADF83C
:1010D000000043462A4639467B4802F03DFE002880
:1010E00060D1276894F80480FF21E42002F0F1FD2C
:1010F000ADF81400ADF8000043462A463946724860
:1011000002F02AFE002840F09D80704B1B78022BD5
:1011100000F09E806C4B93F89030022BB0D16A485F
:10112000B0F89130ADF8003023792A46216802F0FA
:10113000E4FD0028A4D0644B002283F89D20634B7B
:101140001B78043B142B9BD801A252F823F000BF5C
:1011500091120008811000089B12000881100008FD
:10116000A5120008811000088110000881100008F5
:10117000811000088110000881100008811000080B
:1011800081100008AF1200088110000881100008CB
:1011900081100008811000088110000881100008EB
:1011A000B9120008284602F006FE84B2284602F072
:1011B0000BFE80B240EA0440424CE060E068FFF77A
:1011C0009FFDA061414B1B780E2B0FD03F4B1B782E
:1011D000142B7FF455AF3C4B002283F89D2093F8ED
:1011E0009C00F0B13146FFF739FE49E7364900224D
:1011F00081F89D20E06820612262626284F83220DA
:10120000C1F8986081F89C2094F82F3023B13146C2
:101210001020FFF7A1FD33E731460F20FFF79CFDBB
:101220002EE7284BDA685A6100229A6183F832204F
:101230006FF0630226494A60DA6131461520FFF7F4
:101240008BFD1DE7284602F0B6FD1E4B188517E7FB
:101250001D4B93F89030012B7FF45CAF1A48B0F827
:101260009130ADF8003023792A46216802F074FDF0
:1012700000283FF44FAF134B012283F82C20124B70
:10128000002283F89D2031460320FFF765FDF7E635
:1012900031460520FFF760FDF2E631460720FFF7F3
:1012A0005BFDEDE631460920FFF756FDE8E63146E5
:1012B0001320FFF751FDE3E631461920FFF74CFDFF
:1012C000DEE6704768070024C40600246407002493
:1012D0000000002430B585B0054612E00D4C94F8AE
:1012E0008DC004EB0C130C330FCB8DE80F000CF109
:1012F000010C0CF0070C84F88DC029466846FFF7F6
:101300008BFE044B93F88D2093F88C309342E5D1FB
:1013100005B030BDC40600242DE9F04182B0064678
:101320000F461446DFF84C80A022002140460EF004
:101330005DFD0E4D3422002128460EF057FD00972A
:10134000334600220121404602F03DFC084A0123B9
:1013500013706FF063035360002085F82E00EB617B
:101360002146FFF7F9FC02B0BDE8F08168070024D0
:1013700000000024C406002410B58CB00446FFF71A
:10138000A9FFB34B1B781A2B41D8DFE813F01B00E1
:1013900027003D0042003D005D003D007A003D0019
:1013A0009900B300DC003D00F4003D00130127016B
:1013B0003D00400042013D006901A401B2013D0031
:1013C000CD01E601A34BD3F89430E31AB3F5FA7FCD
:1013D0001DD321460120FFF7BFFC18E0E3219D4803
:1013E00002F044FC2146FFF77FFD80B1FF21E3209E
:1013F00002F06FFCADF80C000094039B0122114633
:101400000220FFF7D3FC02E02046FFF74FFD0CB0AF
:1014100010BD2046FFF7E0FC0028F8D08D4802F010
:101420002AFC2146FFF760FD0028F0D0FF214A206A
:1014300002F04FFCADF810000094049B022203213F
:101440000420FFF7B3FCE2E72046FFF7C5FC0028C5
:10145000DDD0012211467F4802F013FC2146FFF740
:1014600043FD0028D3D00A21022002F032FCADF85F
:1014700014000094059B022205210620FFF796FC2C
:10148000C5E72046FFF7A8FC0028C0D0002171481E
:1014900002F005FC2146FFF727FD0028B7D06E4B70
:1014A00000225A85FF21102002F013FCADF818002D
:1014B0000094069B022207210820FFF777FCA6E78D
:1014C0002046FFF789FC0028A1D0644B1B7823B984
:1014D00021461A20FFF740FC99E75E4802F0E5FB41
:1014E0002146FFF701FD002891D021460A20FFF791
:1014F00033FC8CE7594B1B7803B3564BD3F894302D
:10150000E31A40F2DB52934281D9534A012382F815
:101510002D30002382F8313082F82F3082F83030BD
:10152000536193611362536282F83230494A82F800
:101530009C3021460B20FFF70FFC68E7214619205D
:10154000FFF70AFC63E75821424802F08FFB21466F
:10155000FFF7CAFC00283FF45AAFFF21582002F0E1
:10156000B8FBADF81C000094079B01220B210C2056
:10157000FFF71CFC4BE72046FFF72EFC00283FF44A
:1015800046AFE922E821334802F052FB2146FFF73B
:10159000ABFC00283FF43BAFE921E82002F099FBC7
:1015A000ADF820000094089B01220D210E20FFF7CA
:1015B000FDFB2CE7294B1B7823B921461720FFF7A9
:1015C000CBFB24E72046FFF713FC214B1B780F2BA6
:1015D0007FF41DAF2046FFF797FC18E700211D4858
:1015E00002F05DFB2146FFF77FFC00283FF40FAFC0
:1015F000194B00225A85FF21102002F06AFBADF83A
:1016000024000094099B022210211120FFF7CEFB39
:10161000FDE62046FFF7E0FB00283FF4F8AEE922A4
:10162000E8210C4802F004FB2146FFF75DFC00288E
:101630003FF4EDAEE921E82002F04BFBADF82800C5
:1016400000940A9B012213211420FFF7AFFBDEE672
:1016500064070024C4060024680700240000002456
:10166000434B1B7883B1434BD3F89430E31A44F6D1
:101670001F6293420DD93F4B032283F89C202146E1
:101680001B20FFF769FBC2E621461720FFF764FB2A
:10169000BDE62046FFF770FC374B9B69344A526821
:1016A0009B1AB3F1FF3FFFF6B2AE334B9B69304A52
:1016B00052689B1A012B3FF7AAAE2F4B012283F8E9
:1016C000312083F82E20002283F832202146162074
:1016D000FFF742FB9BE6264B1B7823B921461720D8
:1016E000FFF73AFB93E6FFF723FB2046FFF744FCA6
:1016F0008DE600211F4802F0D2FA2146FFF7F4FBE5
:1017000000283FF484AE1C4B00225A85FF21102094
:1017100002F0DFFAADF82C0000940B9B0222172197
:101720001820FFF743FB72E62046FFF755FB002821
:101730003FF46DAE0F4802F0BEFA2146FFF7D4FB2E
:1017400000283FF464AE0C4B002283F82D201A854C
:1017500021461A20FFF700FB59E6054B1B78002BAA
:101760003FF455AE21460720FFF7F6FA4FE600BFDB
:1017700000000024C406002468070024002918BFC4
:10178000072A28D900B5144A92F88C305FFA83FCF6
:10179000013303F0070E92F88D30734507D00E4BDE
:1017A00003EB0C13D86008221A7400230CE00B4AD8
:1017B0009368013393600CE0C85C074A02EB0C129B
:1017C0001A4450740133DBB2072BF5D9024B83F86E
:1017D0008CE05DF804FB7047C40600246807002411
:1017E000034B1B781B2B01D0002070470120704752
:1017F00064070024014B93F82D007047680700240C
:101800002DE9F0418AB04FF0804302930024039405
:101810000225049501260596069407940DF1080803
:101820000C4F4146384604F0A3F902940394049502
:101830000596069407944146384604F099F90096B7
:1018400033462A462946384604F0D7F90AB0BDE89F
:10185000F08100BFE40800242DE9F0418AB04FF088
:1018600080430293002403940225049501260596E3
:10187000069407940DF108080C4F4146384604F0D1
:1018800077F90294039404950596069407944146CB
:10189000384604F06DF9009633462A462946384604
:1018A00004F0ABF90AB0BDE8F08100BF44080024A1
:1018B000F0B58BB04FF080430293002403940225CF
:1018C000049505950694079402AF0C4E39463046B0
:1018D00004F04EF902940394049505950694079438
:1018E0003946304604F044F9012300932A4629463C
:1018F000304604F082F90BB0F0BD00BFA40700240D
:1019000010B5FFF77DFF054C204604F08FF900224B
:101910000121204604F0CCFA10BD00BFE4080024E9
:1019200010B5FFF799FF054C204604F07FF900221F
:101930000121204604F0BCFA10BD00BF4408002479
:1019400010B5FFF7B5FF054C204604F06FF90022F3
:101950001021204604F0ACFA10BD00BFA4070024FB
:1019600000B58DB00392049300230593069107936D
:101970004FF48012089209930A930B9308E010F831
:1019800003C003F130026A4402F82CCC0133DBB20D
:101990008B42F4D301AA03A9044804F060F910B9FA
:1019A0000DB05DF804FB0120FAE700BFE408002455
:1019B00010B58CB004466B4602AA402104F08AF9A7
:1019C000054B9C4201D00CB010BD0822694602981C
:1019D000FFF7D4FEF7E700BFE408002400B58DB0A0
:1019E0006B4602AA412104F075F90DB05DF804FBC5
:1019F00008B50421014808F0D3F808BD740A002492
:101A0000014B9863704700BF0018004010B50A46AC
:101A1000214C0146204609F03DFAD4F880301B687D
:101A20001E491F4A934218BF8B422FD0183293424F
:101A30002CD01832934229D01832934226D0183233
:101A4000934223D01832934220D0183293421DD0B3
:101A500002F55672934219D01832934216D01832BA
:101A6000934213D01832934210D0183293420DD0C3
:101A7000183293420AD01832934207D01832934258
:101A800004D01A6822F004021A6003E01A6822F0F7
:101A900008021A6010BD00BFB00B00241000024005
:101AA0002800024008B50268064B9A4200D008BDE3
:101AB000054A137801331370044B18680BF0FFFBD1
:101AC000F5E700BF007800409C070024840900244B
:101AD00000B583B00F4BD3F8D82042F00102C3F811
:101AE000D820D3F8D83003F001030193019B0022E2
:101AF00005210B2002F018FA0B2002F025FA002233
:101B000005210C2002F010FA0C2002F01DFA03B09F
:101B10005DF804FB0044025838B51648164B0360C4
:101B200000238360C360012202744374827403251E
:101B300045610A2181611D24C4610162456281629F
:101B4000C462016343638263C263082101640422A7
:101B500042648164C264036542658365C36501664E
:101B60004366826603F0BAFE00B938BD00F07AFA27
:101B7000FBE700BFE408002400A0004038B5174888
:101B8000174B036000238360C36001220274437417
:101B90008274032545610A2181611D24C4610162AB
:101BA00045628162C462016340F2553141638263E0
:101BB000C26308210164042242648164C264036533
:101BC00042658365C36501664366826603F086FEEF
:101BD00000B938BD00F046FAFBE700BF4408002416
:101BE00000A4004038B51748174B036000238360FA
:101BF000C3600122027443748274032545610A2183
:101C000081611D24C461016245628162C462016315
:101C100040F2AA6141638263C26308210164042225
:101C200042648164C264036542658365C36501667D
:101C30004366826603F052FE00B938BD00F012FA26
:101C4000FBE700BFA407002400D4004030B5BBB0C0
:101C50000446002135913691379138913991B82257
:101C600006A80EF0C3F823687B4A934208D07B4A4B
:101C7000934253D07A4A934200F09E803BB030BDED
:101C80004FF400420023CDE906234FF08053219307
:101C900006A806F059F980BB724A13680133136035
:101CA000012B2DD0704BD3F8E02042F00802C3F88E
:101CB000E020D3F8E03003F008030193019B0323F5
:101CC00035930223369300243794389409233993AB
:101CD00035A9664804F0D4FA22460521132002F003
:101CE00023F9132002F030F922460521152002F0D5
:101CF0001BF9152002F028F9C0E700F0B3F9CBE793
:101D0000594BD3F8EC2042F48072C3F8EC20D3F89E
:101D1000EC3003F480730093009BC3E74FF4004260
:101D20000023CDE906234FF08053219306A806F047
:101D30000BF980BB4B4A136801331360012B2DD084
:101D4000494BD3F8E02042F00202C3F8E020D3F878
:101D5000E03003F002030393039B602335930223D7
:101D600036930024379438940923399335A9404891
:101D700004F086FA22460521142002F0D5F814203A
:101D800002F0E2F822460521162002F0CDF81620D6
:101D900002F0DAF872E700F065F9CBE7324BD3F8DE
:101DA000EC2042F48072C3F8EC20D3F8EC3003F45A
:101DB00080730293029BC3E74FF400420023CDE9F6
:101DC00006234FF08053219306A806F0BDF888BB88
:101DD000244A136801331360012B2ED0224BD3F811
:101DE000E02042F00802C3F8E020D3F8E03003F02E
:101DF00008030593059B4FF4405335930223369314
:101E00000024379438940525399535A9174804F0EE
:101E100037FA224629469F2002F086F89F2002F0DA
:101E200093F822462946A02002F07EF8A02002F076
:101E30008BF823E700F016F9CAE70B4BD3F8EC2038
:101E400042F48072C3F8EC20D3F8EC3003F48073D2
:101E50000493049BC2E700BF00A0004000A4004020
:101E600000D40040A007002400440258000C02588F
:101E70000004025808B50DF0FFFB01200BF081F9BA
:101E8000FBE7000008B5154A012108460BF087F969
:101E9000134B1860134A002113480BF017F9134B2A
:101EA0001860134A002113480BF010F9124B186008
:101EB000124A002112480BF009F9124B1860124A1D
:101EC000002112480BF002F9114B1860114A002151
:101ED00011480BF0FBF8114B186008BD7013010896
:101EE0008409002410140108751E000898090024B4
:101EF000EC130108BFF4000894090024C81301087A
:101F000061F5000890090024A41301082DF50008CC
:101F10008C09002480130108FDF5000888090024BD
:101F20002DE9F0418CB007AD002407940894099482
:101F30000A940B94404BD3F8E02042F00402C3F81B
:101F4000E020D3F8E02002F004020192019AD3F8D5
:101F5000E02042F08002C3F8E020D3F8E02002F055
:101F600080020292029AD3F8E02042F00102C3F804
:101F7000E020D3F8E02002F001020392039AD3F8A4
:101F8000E02042F01002C3F8E020D3F8E02002F095
:101F900010020492049AD3F8E02042F00202C3F83F
:101FA000E020D3F8E02002F002020592059AD3F86F
:101FB000E02042F00802C3F8E020D3F8E03003F05C
:101FC00008030693069BDFF8808022464FF46041A9
:101FD000404604F05FFA194E22464FF40041304665
:101FE00004F058FA4FF460430793012708970994C7
:101FF0000A942946404604F043F94FF400430793FE
:10200000089709940A942946304604F039F9802348
:102010000793089409942946094804F031F94FF4CC
:1020200080630793089409942946064804F028F928
:102030000CB0BDE8F08100BF004402580010025807
:10204000000C0258000402580008025808B5026843
:10205000034B9A4200D008BD01F0EEFEFBE700BF43
:102060000020004072B6FEE700B59DB04C22002172
:1020700009A80DF0BBFE2022002101A80DF0B6FE3C
:10208000022005F07FF800230093204B9A6922F488
:1020900040429A619B6903F440430093009B1B4BB1
:1020A0009B6913F4005FFAD0012209924FF4803348
:1020B0000A930223129313931493282115911692D5
:1020C0000422179218930C23199300231A931B933D
:1020D00009A805F089F8A8B93F23019303210291CB
:1020E00000230393082304934023059306934FF49E
:1020F00080620792089301A805F064FC20B91DB026
:102100005DF804FBFFF7AEFFFFF7ACFF0048025895
:1021100008B501F063FEFFF7A7FFFFF701FFFFF728
:10212000D7FC00F013F800F083FAFFF7F5FCFFF797
:1021300025FDFFF757FD00F0FBFA00F0BDFA0AF0AD
:102140008DFFFFF79FFE0AF09BFFFEE708B51648DC
:10215000164B03604FF4800343604FF400338360F9
:102160000723C360002303614FF0807242614FF088
:10217000806282614FF08052C26103624362836277
:10218000C3624FF0804242638363C363036443646A
:102190008364C36403654365836506F095FE00B9F7
:1021A00008BDFFF75FFFFBE79C09002400140058FF
:1021B000F0B5BBB004460021359136913791389186
:1021C0003991B82206A80DF011FE23684A4A9342BD
:1021D00004D04A4A934259D03BB0F0BD4FF48052EC
:1021E0000023CDE9062310230893C023099302237B
:1021F0000A930B930C9320230E934FF480531D935B
:1022000006A805F0A1FE00283DD13D4BD3F8F020F3
:1022100042F48052C3F8F020D3F8F02002F4805248
:102220000192019AD3F8E02042F00802C3F8E020BE
:10223000D3F8E02002F008020292029AD3F8E020DC
:1022400042F00202C3F8E020D3F8E03003F00203CA
:102250000393039B802335930227369700243794FA
:1022600038940526399635AD2946264804F008F8F5
:10227000182335933697379438943996294622484F
:1022800003F0FEFFA8E7FFF7EDFEBEE74FF4804244
:102290000023CDE906234FF0A043319306A805F0B3
:1022A00053FE30BB164BD3F8F42042F02002C3F8A3
:1022B000F420D3F8F42002F020020492049AD3F818
:1022C000E02042F00102C3F8E020D3F8E03003F050
:1022D00001030593059BA023359302233693002326
:1022E000379338930823399335A9084803F0C8FF7A
:1022F00072E7FFF7B7FED5E7003001400014005841
:1023000000440258000C0258000402580000025811
:1023100000B583B00A4BD3F8F42042F00202C3F8B0
:10232000F420D3F8F43003F002030193019B002260
:102330000F216FF0010001F0F7FD03B05DF804FB21
:10234000004402580F2801D90120704710B58AB007
:102350000446002201462D2001F0E6FD2D2001F06B
:10236000F3FD1A4B1C601A4BD3F8E82042F480723C
:10237000C3F8E820D3F8E83003F480730093009B9F
:1023800001A902A805F0AEFC079BBBB905F086FCCD
:102390000346104AA2FB03239B0C013B0E480F4A45
:1023A000026040F2E732C260436000230361836051
:1023B00007F0A0FA30B101200AB010BD05F06EFCA4
:1023C0004300E6E7044807F0F3F8F5E7500000247F
:1023D0000044025883DE1B43240A002400200040EE
:1023E000FEE7FEE7FEE7FEE7FEE7704708B50248B6
:1023F00002F0AAFD08BD00BFC00A002408B50248CB
:1024000002F0A2FD08BD00BF380B002408B5024849
:1024100003F0A6FD08BD00BFE408002408B502488B
:1024200003F09EFD08BD00BF4408002408B5024823
:1024300003F096FD08BD00BFE408002408B502487B
:1024400003F08EFD08BD00BF4408002408B5024813
:1024500007F002F908BD00BF240A002408B50248AD
:1024600007F040FD08BD00BF440C002408B5024839
:1024700004F047FB08BD00BF2072002408B50248E5
:1024800007F030FD08BD00BFB00B002408B50248BE
:1024900003F066FD08BD00BFA407002408B502488C
:1024A00003F05EFD08BD00BFA407002410B503467D
:1024B0000C4A0D490D48006840B10C4800680344BF
:1024C000521A934206D8094A136010BD0748084CB7
:1024D0000460F2E70DF00EFD0C2303604FF0FF30B7
:1024E000F3E700BF0000052400040000700A002488
:1024F000087A0024224AD2F8883043F47003C2F8E4
:102500008830204B1B6803F00F03062B06D81D4AAA
:10251000136823F00F0343F0070313601A4B1A6884
:1025200042F001021A6000221A611968174A0A4033
:102530001A60144B1B6813F0080F06D0114A136879
:1025400023F00F0343F0070313600F4B00229A613F
:10255000DA611A620E4999620E49D9620E4919630D
:102560005A639963DA6319645A64196821F4802103
:1025700019601A66094B43F2D2021A60704700BF15
:1025800000ED00E000200052004402587FEDF6EA22
:10259000000202020000FF0180020101004000521F
:1025A00002680A4B9A4200D0704782B0084BD3F8B9
:1025B000E82042F04002C3F8E820D3F8E83003F006
:1025C00040030193019B02B0704700BF0018004018
:1025D0000044025800B587B000230193029303938F
:1025E0000493059302680F4B9A4202D007B05DF83E
:1025F00004FB0D4BD3F8E02042F00202C3F8E020C8
:10260000D3F8E03003F002030093009B4FF4004343
:10261000019302230293059301A9044803F030FEBD
:10262000E4E700BF001800400044025800040258CC
:1026300000B58BB00023079308930993009301938F
:10264000029303930493059306931948194A026071
:1026500017224260836040F2CF72C26003618361DF
:1026600007F078F9D8B900230793099307A9104810
:1026700007F04EFBB0B9602300934FF47A730193D7
:1026800000230293049304226946094807F0DCF909
:1026900058B90748FFF79EFF0BB05DF804FBFFF742
:1026A000E1FCE0E7FFF7DEFCE5E7FFF7DBFCF0E746
:1026B000740A00240018004008B51A481A4B036039
:1026C0001A4B43604FF4805383604FF40053C36050
:1026D0004FF4806303610C23436100238361C36172
:1026E00003624362836208F0B8FA70B900210D48B2
:1026F00008F086FB60B900210A4808F0A6FB50B933
:10270000084808F05EFB48B908BDFFF7ABFCEDE7F1
:10271000FFF7A8FCEFE7FFF7A5FCF1E7FFF7A2FC46
:10272000F2E700BF440C002400500040A0860100E6
:1027300008B51748174B0360174B436000238360AD
:10274000C36003610C2242618361C361036243621F
:10275000836208F082FA70B900210D4808F050FB3E
:1027600060B900210A4808F070FB50B9084808F029
:1027700028FB48B908BDFFF775FCEDE7FFF772FCD1
:10278000EFE7FFF76FFCF1E7FFF76CFCF2E700BF44
:10279000B00B002400780040A0680600F0B5BBB084
:1027A0000446002135913691379138913991B822FC
:1027B00006A80DF01BFB2368644A934204D0644AC8
:1027C00093426ED03BB0F0BD02220023CDE9062338
:1027D00006A805F0B9FB00285DD15E4BD3F8E820D0
:1027E00042F48012C3F8E820D3F8E82002F4801203
:1027F0000192019AD3F8E02042F00202C3F8E020EF
:10280000D3F8E02002F002020292029AD3F8E0200C
:1028100042F00802C3F8E020D3F8E03003F00803E8
:102820000393039B4FF400533593022736970025FB
:10283000379538950E23399335AE3146464803F027
:102840001FFD042335933697379538950823399320
:102850003146424803F014FD4148424B0360412396
:1028600043608560C5604FF48063036145618561A5
:10287000C5610562456201F07BFD78B9384BC4F84B
:1028800080309C6300220521352001F04DFB35206E
:1028900001F05AFB96E7FFF7E5FB9EE7FFF7E2FB47
:1028A000ECE702220023CDE9062306A805F04CFB45
:1028B000002845D1274BD3F8E82042F08042C3F8E6
:1028C000E820D3F8E82002F080420492049AD3F87A
:1028D000E02042F01002C3F8E020D3F8E03003F02B
:1028E00010030593059B4FF4C07335930223369371
:1028F0000025379538950723399335A91A4803F0F1
:10290000BFFC1A481A4B03604F2343608560C560C3
:102910004FF48063036145618561C561056245626D
:1029200001F026FD78B9114BC4F880309C63002279
:102930000521522001F0F8FA522001F005FB41E791
:10294000FFF790FBB6E7FFF78DFBECE70050004088
:10295000007800400044025800040258000C02585D
:10296000380B00242800024000100258C00A00243E
:1029700010000240DFF834D0FFF7BCFD0C480D49D1
:102980000D4A002302E0D458C4500433C4188C42CA
:10299000F9D30A4A0A4C002301E013600432A24230
:1029A000FBD30DF0ADFAFFF7B3FB70470000052431
:1029B00000000024A806002480180108A8060024AE
:1029C000087A0024FEE7000010B588B000238DF8D7
:1029D00007300EE04FF0600C14E04FF0600C1EE08A
:1029E0004FF0600CC3F1170420346C4404F818CC89
:1029F0000133072B21DC41FA03F414F0010FE9D075
:102A00004FF0780CC3F1070420346C4404F818CC60
:102A100040FA03F414F0010FDFD04FF0780CC3F14B
:102A20000F0420346C4404F818CC42FA03F414F078
:102A3000010FD5D04FF0780CD4E74FF6FF7300228A
:102A40000DF107010E4806F007FB0D4B93F881309E
:102A5000012BFAD14FF6FF73182202A9084806F09D
:102A6000FBFA002408E04FF6FF7301220DF1070185
:102A7000034806F0F1FA0134632CF4DD08B010BD10
:102A80009C09002408B5072823D8DFE800F00426B5
:102A90000A0E12161A1E01460246FF20FFF794FF87
:102AA00008BDFF2200210846F8E7FF221146104624
:102AB000F4E7002211461046F0E7FF2211460020FD
:102AC000ECE70022FF210846E8E7FF22002110463C
:102AD000E4E7002211461046E0E70022FF211046FD
:102AE000DCE70000002304E0034A6421D1540133F1
:102AF000DBB20F2BF8D97047DC0C0024014B00220D
:102B00001A547047DC0C0024002305E02449CA5CF9
:102B10000132CA540133DBB20F2BF7D9204B1B789B
:102B2000032B3AD91E4B04221A7001201C4B5B78F0
:102B3000012B04D940F00200194B02225A70184BA5
:102B40005B7A012B04D940F40070154B02225A72B3
:102B5000134B9B7B012B04D940F48040104B022285
:102B60009A730F4B5B7B012B04D940F400500C4B44
:102B700002225A730A4B1B7B012B04D940F480506C
:102B8000074B02221A73064BDB7A012B04D940F45F
:102B90000060034B0222DA7270470020C6E700BFD4
:102BA000DC0C002410F0010F09D0074B00221A7032
:102BB00010F0020F02D0054B00221A707047024B32
:102BC00001221A70F4E700BFD90C0024D80C0024AD
:102BD00010B58CB00B4CEC4604F10C0EBEE80F00A7
:102BE000ACE80F00BEE80F00ACE80F009EE80F0055
:102BF0008CE80F0094E80E00034800F0CBF90CB00D
:102C000010BD00BF10000024F00C002408B50146E0
:102C1000014800F0F8FB08BDF00C002410B52DEDC4
:102C2000028B1B4C94ED238AD4ED0E7A9FED197A1A
:102C300077EEC77A9FED180A37EE800A0DF0ACFBED
:102C4000DFED167A60EE277A9FED157A20EE070AFF
:102C500077EE807A134BC3ED007AC4ED257ADFED71
:102C6000127AB4EEE78AF1EE10FA01DDC4ED237AB0
:102C7000074B93ED237ADFED0D7AB4EEE77AF1EEB0
:102C800010FA01D5C3ED237ABDEC028B10BD00BF55
:102C9000F00C00249A7C9740E4CB96406D8EB63EB3
:102CA00005C5B740EC0C00247593803F54E3E53E26
:102CB00008B501469FED020B034800F00DFF08BD6B
:102CC000000000000000F03FF00C002410B5094C9B
:102CD000204600F077FEA269237E13B1064B134015
:102CE00003B910BD4FF080430821A01DFEF738FE48
:102CF000F7E700BFF00C002400FFFF0008B5012239
:102D00004FF40041014803F0C5FB08BD000802581C
:102D100007EE900AB0EE407AB8EE670AF2EE047A57
:102D200077EE277AB4EEE70AF1EE10FA0AD8F2EE5F
:102D3000047A77EE677AB4EEE70AF1EE10FA01DB77
:102D4000B0EE470A70470378C82B01D000207047C7
:102D50004378182B01D0002070478378162B01D0C0
:102D600000207047C378027943EA0223C3F30A03C1
:102D70000B80027943795B0143EAD203C3F30A0370
:102D80004B80427983799B0043EA9213C27943EAEC
:102D90008223C3F30A038B80C279037ADB0143EAFF
:102DA0005203C3F30A03CB80027A437A1B0143EA3E
:102DB0001213C3F30A030B81427A837A5B0043EA5E
:102DC000D213C27A43EA4223C3F30A034B81C27A85
:102DD000037B9B0143EA9203C3F30A038B81027BCB
:102DE000437BDB0043EA5213CB81837BC27B43EA04
:102DF0000223C3F30A030B82C27B037C5B0143EA19
:102E0000D203C3F30A034B82027C437C9B0043EA58
:102E10009213827C43EA8223C3F30A038B82827C6F
:102E2000C37CDB0143EA5203C3F30A03CB82C27CB7
:102E3000037D1B0143EA1213C3F30A030B83027DD4
:102E4000437D5B0043EAD213827D43EA4223C3F30E
:102E50000A034B83827DC37D9B0143EA9203C3F344
:102E60000A038B83C27D037EDB0043EA5213CB83CC
:102E70000120704784B010B52DED048B06AC84E8BA
:102E80000F000E9C9FED408AB0EE480ABDF8180076
:102E9000FFF73EFF30EE480A30EE000ADFED3B8AD6
:102EA000C0EE287AC4ED027AB0EE480ABDF81A00E6
:102EB000FFF72EFF30EE480A30EE000AC0EE287A07
:102EC000C4ED037A9FED329AB0EE490ABDF81C00BA
:102ED000FFF71EFF30EE490A30EE000AC0EE287AF6
:102EE000C4ED017AB0EE480ABDF81E00FFF710FFEE
:102EF00030EE480A30EE000AC0EE287AC4ED007ABF
:102F0000BDF82030BF2B12D0B3F5E06F01D1032301
:102F1000A374BDF8223040F2E53293421AD0B3F5E3
:102F2000E06F07D0BF2B07D10223237404E00423F2
:102F3000A374EEE700232374BDF8243040F2E53299
:102F400093421BD0B3F5E06F07D0BF2B07D102230C
:102F5000637404E001232374EEE700236374BDF877
:102F60002630BF2B0DD0B3F5E06F01D10323E374FE
:102F7000BDEC048BBDE8104004B0704701236374BE
:102F8000EDE70423E374F3E70020784400A0CC4489
:102F900000002E4384B00DF1040C8CE80E009DF867
:102FA0000430427863F347124270C3F3C1024178A0
:102FB00062F301014170D243017862F301010170B3
:102FC000C3F34111427861F3C4024270027822F0E7
:102FD000C0020270D2B242F020020270D2B222F0DD
:102FE0000C020270DB09427863F38202427083F0C4
:102FF0000103027863F3041202709DF805208378C0
:1030000062F3000383700023C37083759DF806206C
:1030100002719DF807204271A0F84C300B9BC0F85C
:103020008C310023C0F89031C0F894310C9AC0F86C
:10303000D021C0F8D4310A9BC367029BC0F8243169
:10304000039BC0F83031049BC0F83431059BC0F8B5
:103050003831069BC0F82831079BC0F82C31089BFB
:10306000C0F86831099BC0F86C319DF8343080F8A5
:1030700010310E9BC0F89C300F9BC0F8A03004B0FC
:10308000704700000138062830D8DFE800F0040C53
:103090000C131A212800194B0B60194B4B604FF091
:1030A00083438B607047174B0B60174B4B60174B7C
:1030B0008B607047164B0B60164B4B60164B8B604A
:1030C0007047164B0B60164B4B60164B8B6070476E
:1030D000154B0B60154B4B60154B8B607047124BBB
:1030E0000B60144B4B60144B8B607047034B0B60B1
:1030F000034B4B604FF083438B60704700000442EA
:103100000000604100003042000088410000B841EA
:103110000000A0410000704200002C4200007041FD
:103120000000F0420000B442000048420000B040FD
:10313000000030410000104200006442F8B52DED5F
:10314000028B044690F83400B4F83530DAB22179B5
:10315000914203D00020BDEC028BF8BDF0EE408A16
:10316000B0EE608A6279824201D00020F3E7C3F3B7
:103170000522101E18BF0120E17D60F38611E17564
:10318000E2759B0B227863F383022270A07BE27BC3
:10319000237C677C47EA0327A37CE67C46EA032678
:1031A000217D637D43EA01251021DFED150A9FEDA6
:1031B000150A42EA002008F079FC84ED0E0A10217D
:1031C000F0EE680AB1EE680A384608F06FFC84ED4C
:1031D0000F0A1021F0EE480AB1EE480A304608F016
:1031E00065FC84ED100A07EE905AF8EEE77AF2EEED
:1031F000046A87EEA67A84ED117A0120ABE700BF5E
:10320000B81E4941B81E49C190ED0E7AD0ED127A30
:1032100077EE677ADFED326AF4EEE67AF1EE10FAD5
:1032200004DDB0F94C30013BA0F84C30DFED2D6AE5
:10323000F4EEE67AF1EE10FA04D5B0F94C30013331
:10324000A0F84C30B0F94C3007EE903AF8EEE77A3F
:10325000DFED236A67EEA67A9FED236AC7EE866AE2
:103260009FED226AC7EE067A76EEA77AC0ED247A41
:1032700080ED127A9FED1E7A09230EE0591E03F1AC
:10328000130200EB8202D2ED007A143300EB8303C9
:10329000C3ED007A37EE277ACBB2002BEED1D0ED1A
:1032A0000F7AC0ED147A37EE877AB2EE046AC7EE71
:1032B000066AC0ED1E6AD0ED1F5A27EEA57AD0ED42
:1032C000156AB7EE006A36EE656A66EE866A37EE14
:1032D000267A80ED207A87EE807A80ED227A704718
:1032E000B81E4941B81E49C1DB0F4940DB0FC94038
:1032F00000000000B0F835301B0A1BD1C27B837B75
:1033000043EA02231BB247F20502934205D047F27B
:103310002902934208D000207047827C037862F330
:103320000103037001207047827C037862F3041369
:103330000370F7E70020704790F834C0B0F83530DC
:10334000DBB20A490A7801320A7002799A4201D046
:10335000002070474379634501D000207047C37D4A
:1033600043F08003C3750120704700BF3E0F002467
:1033700003789B09012B14D0022B28D0002B35D1C8
:10338000C3784F2B32D9037813F0200F2ED0037857
:1033900023F020030370DBB2012262F38713037072
:1033A00024E0C37D3F2B03D8037843F02003037050
:1033B000E1B1037813F0200F18D0037823F0200335
:1033C0000370DBB2022262F3871303700EE003780E
:1033D00003F00C03082B11D041B9037843F020030C
:1033E0000370DBB2012262F387130370C37D3F2BAE
:1033F00003D9037843F0C00303707047037843F0A8
:1034000020030370E8E7837D012B00D0704730B5BF
:1034100085B004460D46407801A94009FFF732FE09
:1034200094F8373003F01F03023B162B16D8DFE861
:1034300003F00C151515151515151515151515157C
:1034400015231515152715150C00DDED020A9DED48
:10345000010A2046FFF772FE012807D029462046C0
:10346000FFF786FF0223A37505B030BD9DED010A6D
:103470002046FFF7C9FEF1E72046FFF73BFFEDE7E7
:103480002046FFF759FFE9E7437803F00303022BD7
:1034900031D0032B36D0012B24D090ED257A80ED4E
:1034A0000B7AD0ED237ADFED286A67EEA67AC0EDBD
:1034B000077AD0ED217A67EE807AC0ED087AB4EE13
:1034C000E07AF1EE10FA01DDC0ED0B0AD0ED0B7AD7
:1034D000F1EE600AF4EEE07AF1EE10FA32D5C0EDCA
:1034E0000B0A7047D0ED237A9FED177A67EE877A43
:1034F000C0ED077A7047D0ED217A67EE807AC0ED93
:10350000087A7047D0ED5C7A67EE817A90ED257A83
:1035100027EE017AC7EE206A77EEA67AC0ED0C7A24
:10352000F4EEC17AF1EE10FA01DD80ED0C1AD0ED67
:103530000C7AB1EE411AF4EEC17AF1EE10FA01D52F
:1035400080ED0C1A704700BFDB0FC940037903768A
:103550004379A0F81930C37E032262F30403C376D3
:10356000DBB223F0E003C376002304E0C21800219D
:1035700091710133DBB2072BF8D9704703790376D9
:103580004379A0F81930C37E042262F30403C376A2
:10359000DBB223F0E003C376002306E0C2184FF04D
:1035A000000C82F806C00133DBB2072BF6D90129E3
:1035B00000D0704701238371FBE790F801C0CCF382
:1035C000010C037903764379A0F81930C37E1222E7
:1035D00062F30403C376DBB223F0E003C376002377
:1035E00004E0C218002191710133DBB2072BF8D936
:1035F00047F20503C38080F80AC070470379037659
:103600004379A0F81930C37E062262F30403C3761F
:10361000DBB223F0E003C376002304E0C2180021EC
:1036200091710133DBB2072BF8D901238371704705
:10363000037903764379A0F81930C37E162262F32A
:103640000403C376DBB223F0E003C376002304E077
:103650001A460133DBB202449371072BF8D9704745
:1036600000230376826963F317228261C27E63F3CB
:103670000402C276D2B263F34712C27604E0C218E3
:10368000002191710133DBB2072BF8D97047037920
:1036900003764379A0F81930C37E112262F3040344
:1036A000C376DBB223F0E003C376002304E0C21844
:1036B000002191710133DBB2072BF8D947F20503E2
:1036C000C38070472DE9F04F2DED028B83B0044687
:1036D000F0EE408AB0EE608A10209FED301ADFEDE8
:1036E000300A94ED070A08F0BDF907461FFA80FB7F
:1036F0001020B0EE681AF1EE680A94ED080A08F09E
:10370000B1F906461FFA80FADFED268A10209FEDF8
:10371000261AF0EE680A94ED090A08F0A3F90546A6
:103720001FFA80F91020B1EE041AF0EE680A94ED49
:103730000A0A08F097F90190BDF804801020B0EE55
:10374000481AF1EE480A94ED0B0A08F08BF9237938
:103750002376A4F81900E37E012262F30403E376E2
:10376000DBB223F0E003E3764FEA1B2B84F806B0CC
:10377000E7714FEA1A2A84F808A066724FEA1929FD
:1037800084F80A90E5724FEA182884F80C80019BAF
:10379000637303B0BDEC028BBDE8F08FB81E4941E6
:1037A000B81E49C1000000000000FA430379037607
:1037B0004379A0F81930C37E122262F30403C37662
:1037C000DBB223F0E003C376002304E0C21800213B
:1037D00091710133DBB2072BF8D947F21603C3808E
:1037E000C369C0F80A307047037903764379A0F8BB
:1037F0001930C37E122262F30403C376DBB223F0D6
:10380000E003C376002304E0C21800219171013364
:10381000DBB2072BF8D947F20A03C380036AC0F86A
:103820000A307047037903764379A0F81930C37ED4
:10383000122262F30403C376DBB223F0E003C37603
:10384000002304E0C218002191710133DBB2072B81
:10385000F8D947F20603C380036BC0F80A307047FB
:1038600010B5044603789B09032B24D8DFE803F046
:10387000029579A1427802F00302037803F0030372
:103880009A4219D0C3780A2B06D00F2B0BD0052BE8
:103890000BD1FFF7FCFE0BE0837D4BB1FFF78DFEF4
:1038A0000023A37504E00423C3702046FFF7D8FE6D
:1038B000E3780133E37010BD837813F0010F34D047
:1038C000C378142B07D0192B29D00F2B29D1002115
:1038D000FFF754FEECE7837D002BE9D090F83730FA
:1038E00003F01F03022BE3D1D0ED0E7A9FED337A64
:1038F000F4EEC77AF1EE10FA0BD59FED317AF4EEC3
:10390000C77AF1EE10FA04DD837823F001038370A7
:1039100002E02046FFF772FE0023A375C8E70E23DE
:10392000C3702046FFF79CFEC2E7037813F0200F18
:1039300013D1C378232B05D0642B06D02046FFF784
:103940008FFEB5E7FFF774FEB2E7037843F020037C
:1039500003700021FFF712FEF0E70021FFF70EFED3
:10396000A6E7037813F0200F0BD0437803F003038E
:10397000022B0CD0032B0DD0012B05D0FFF7A2FE9C
:1039800099E7FFF7E3FD96E7FFF710FF93E7FFF7EF
:103990002BFF90E7FFF746FF8DE7037813F0200F2A
:1039A00003D10121FFF7EAFD85E70021FFF7E6FDDE
:1039B00081E70021FFF7E2FD7DE700BF6F12033AC8
:1039C0006F1203BA10B584B00446407801A94009CB
:1039D000FFF758FB9DED031ADDED020A9DED010A8C
:1039E0002046FFF751FDDDED020A9DED010A20465C
:1039F000FFF736FF04B010BD08B5D0F88430C0F82A
:103A00001831D0F88830C0F81C3100F58C7008F0FF
:103A100019FA08BD08B5D0F88C30C0F88031D0F85C
:103A20009030C0F8843100F5C07008F00BFA08BD82
:103A3000D0B52DED048B044657EC106BB0EE418AE7
:103A4000D0ED237A77EEA77A9FED217A67EE877A19
:103A500017EE900AFCF7A0FD41EC190B00221D4B5C
:103A600030463946FCF71AFF41EC110BB0EE490A1B
:103A7000F0EE690A04F1A80008F02CF8D4E942013C
:103A8000FCF7F4FF07EE900AC4F8980087EE887AF6
:103A900084ED267AD4ED277A27EE277A84ED267AEC
:103AA000D4ED287AB4EEE77AF1EE10FA01DDC4ED38
:103AB000267A94ED267AF1EE677AB4EEE77AF1EEA3
:103AC00010FA01D5C4ED267ABDEC048BD0BD00BF41
:103AD000DB0F494000408F4030B52DED028B85B0A3
:103AE00004460D46437803F00303032B0DD045B97C
:103AF000D4F89030C4F88C300023C4F88430C4F873
:103B0000943005B0BDEC028B30BDB0EE408AF0EED3
:103B1000608A407801A94009FFF7B4FA6378C3F3DB
:103B2000C103022B1DD006D8012B1DD804F58C70C3
:103B300008F028FA18E0032B16D12046FFF76AFF99
:103B40009DED011AB0EE480AF0EE680A2046FFF734
:103B50006FFFD4ED767A94ED267A77EE877AC4ED0E
:103B6000217A2046FFF748FF002DCAD1637803F081
:103B70001803182B06D0102BB9D104F58C7008F05F
:103B800001FAB4E704F58C7008F0FCF904F5C07094
:103B900008F0F8F9ABE7002918BF002808D010B5E5
:103BA00044683CB1836808220078A04720B910BD62
:103BB000012070470120FAE70220F8E7C2F307234B
:103BC00003700A70704720B1017042704360009B1F
:103BD0008360704700B330B583B01C460546437818
:103BE0008DF800301A238DF801308DF8021001A9EC
:103BF0000DF10300FFF7E2FF8DF80540BDF9182035
:103C00000DF107010DF10600FFF7D8FF69462846C0
:103C1000FFF7C1FF03B030BD0120704700B583B08E
:103C200000230093FF23FFF7D5FF03B05DF804FBEB
:103C3000D0B100B583B043788DF800302A238DF8D9
:103C400001308DF8021000238DF803308DF8043018
:103C50008DF805208DF806308DF807306946FFF79E
:103C60009AFF03B05DF804FB0120704708B5FF22FE
:103C7000FFF7DEFF08BD08B500224A21FFF7CEFF9F
:103C800008BD00B583B0090209B2114300910A23AF
:103C9000C4220221FFF79EFF03B05DF804FB08B5C4
:103CA0000A461021FFF7BAFF08BD08B5012200211E
:103CB000FFF7B4FF08BD08B500221146FFF7AEFFBD
:103CC00008BD18B1007800F5807070474FF480701F
:103CD000704782B08DF800008DF80110BDF80030FB
:103CE000ADF8043000209DF8043063F307009DF820
:103CF000053063F30F2002B07047002A18BF002878
:103D000024D070B504460E461546072B20D9FFF780
:103D1000D8FFB04201D0002070BD2A7863789A4263
:103D200001D00020F8E76B781B2B01D00020F3E7CF
:103D3000AA789DF810309A4201D00020ECE76A7909
:103D40009DF811309A4205D00020E5E70020704729
:103D50000020E1E70120DFE7002A18BF002824D077
:103D600070B504460E461546072B20D9FFF7A9FF6C
:103D7000B04201D0002070BD2A7863789A4201D009
:103D80000020F8E76B782B2B01D00020F3E7AA780E
:103D90009DF810309A4201D00020ECE76A799DF836
:103DA00011309A4205D00020E5E70020704700203E
:103DB000E1E70120DFE728B1C278007940EA02207C
:103DC00000B270470020704728B18279C07940EA7C
:103DD000022000B2704700207047000010B5032099
:103DE00000F090F803F0F2FC0F498B69C3F3032352
:103DF0000E4AD35C03F01F03D8408B6903F00F0316
:103E0000D35C03F01F0320FA03F3094A1360094B44
:103E100018600F20FEF796FA10B10124204610BD5D
:103E20000446FEF775FAF9E7004402583414010815
:103E3000080000240C000024034B1B78034A11687F
:103E40000B441360704700BF4C000024400F002457
:103E5000014B1868704700BF400F002438B5044676
:103E6000FFF7F6FF0546B4F1FF3F02D0044B1B7885
:103E70001C44FFF7EDFF401BA042FAD338BD00BF42
:103E80004C000024002807DB00F01F02400901233A
:103E90009340024A42F82030704700BF00E100E042
:103EA000002804DB0901C9B2044B1954704700F023
:103EB0000F000901C9B2024B1954704700E400E039
:103EC00014ED00E000B500F00700C0F1070CBCF1F4
:103ED000040F28BF4FF0040C031D062B0FD9C31E7F
:103EE0004FF0FF3E0EFA0CF021EA000199400EFA65
:103EF00003FE22EA0E0241EA02005DF804FB002301
:103F0000EEE700000649CB6823F4E0631B041B0CBA
:103F1000000200F4E0600343024A1A43CA6070479B
:103F200000ED00E00000FA0510B50446054BD86826
:103F3000C0F30220FFF7C6FF01462046FFF7B0FF9F
:103F400010BD00BF00ED00E008B5FFF79BFF08BD06
:103F5000F0B4876D0468664E664DAC4218BFB4423B
:103F600042D01835AC423FD01835AC423CD0183561
:103F7000AC4239D01835AC4236D01835AC4233D0CB
:103F80001835AC4230D005F55675AC422CD01835FA
:103F9000AC4229D01835AC4226D01835AC4223D0DB
:103FA0001835AC4220D01835AC421DD01835AC4283
:103FB0001AD01835AC4217D04F4DAC4214D014353E
:103FC000AC4211D01435AC420ED01435AC420BD0FB
:103FD0001435AC4208D01435AC4205D01435AC428F
:103FE00002D01435AC4207D1446E856E6560C46E54
:103FF00014B1046F456F656004683D4E3D4DAC42A1
:1040000018BFB44252D01835AC424FD01835AC422C
:104010004CD01835AC4249D01835AC4246D0183592
:10402000AC4243D01835AC4240D005F55675AC4291
:104030003CD01835AC4239D01835AC4236D01835A2
:10404000AC4233D01835AC4230D01835AC422DD00C
:104050001835AC422AD01835AC4227D0264E274D11
:10406000AC4218BFB44211D0254DAC420ED014352D
:10407000AC420BD01435AC4208D01435AC4205D05C
:104080001435AC4202D01435AC4224D1C46D04F0D6
:104090001F050124AC407C60046863608368402B8A
:1040A00020D0036899600368DA6014E0C46D04F0FE
:1040B0001F0C3F2404FA0CF4BC6005682C6824F43F
:1040C00080242C60046863608368402B05D00368FB
:1040D00099600368DA60F0BC704703689A6003680F
:1040E000D960F8E703689A600368D960F3E700BF16
:1040F0001000024028000240085402581C54025884
:104100003054025803682749274A934218BF8B420C
:104110002FD0183293422CD01832934229D0183223
:10412000934226D01832934223D01832934220D0A3
:10413000183293421DD002F55672934219D01832AC
:10414000934216D01832934213D01832934210D0B3
:10415000183293420DD0183293420AD0183293424B
:1041600007D01832934204D023F0FF038365806D9B
:10417000704710B4D9B210390C4AA2FB0142C2F305
:1041800002120B4CA25CC2655F2907D96FF30903C9
:1041900004338365806D5DF8044B70476FF309034A
:1041A0008365F7E71000024028000240ABAAAAAAE4
:1041B0004414010883699BB9836A012B0AD0022B3E
:1041C00002D00BB100207047C36A13F0807F2AD160
:1041D00000207047C36AB3F1C07F26D0002070472B
:1041E000B3F5005F0AD0836A022B26D9032B26D1B0
:1041F000C36A13F0807F24D100207047836A032BA9
:1042000003D8DFE803F01404140A00207047C36ADF
:1042100013F0807F0DD100207047C36AB3F1C07FD7
:1042200009D000207047012070470120704701200D
:10423000704701207047012070470120704700201F
:10424000704701207047000003682149214A9342CA
:1042500018BF8B4227D01432934224D01432934299
:1042600021D0143293421ED0143293421BD0143208
:10427000934218D01432934215D0DAB2103A16494C
:10428000A1FB0212120915491944A8291ED9144B81
:1042900013449B000366134B436602F01F02012385
:1042A000934083667047DBB2083B0F4AA2FB0323AF
:1042B0000E4A02EB1312920002660D4A4266C3F3E5
:1042C0000413012202FA03F3836670470832DEE723
:1042D000085402581C540258ABAAAAAAF0FBFDBF0E
:1042E0000082001080080240CDCCCCCC0096001695
:1042F0008058025801794A1E072A2BD830B4036827
:10430000154D164CA34218BFAB4218D01434A3422B
:1043100015D01434A34212D01434A3420FD0143455
:10432000A3420CD01434A34209D01434A34206D0C3
:104330000B4B0B449B00C3660A4B036705E00A4B1B
:104340000B449B00C366094B0367012393404367FB
:1043500030BC7047704700BF085402581C540258C4
:104360003F820010400902403F9600164059025813
:1043700070B50446FFF76CFD002C00F0B7810546D0
:1043800023685349534A934218BF8B420CBF012103
:10439000002150D0183293424DD0183293424AD067
:1043A0001832934247D01832934244D01832934285
:1043B00041D0183293423ED002F5567293423AD021
:1043C0001832934237D01832934234D01832934285
:1043D00031D0183293422ED0183293422BD018325B
:1043E000934228D01832934225D03B493B4A93420E
:1043F00018BF8B4200F03281394A934200F02E817F
:104400001432934200F02A811432934200F0268144
:104410001432934200F022811432934200F01E8144
:104420001432934200F01A8140236365032384F819
:10443000353001204AE0022284F83520002284F839
:10444000342079BB274A93422CD01832934229D08A
:104450001832934226D01832934223D01832934216
:1044600020D0183293421DD002F55672934219D0D3
:104470001832934216D01832934213D01832934216
:1044800010D0183293420DD0183293420AD018320D
:10449000934207D01832934204D01A6822F00102E6
:1044A0001A6003E01A6822F001021A6023681A6891
:1044B00012F0010F18D0FFF7CBFC431B052BF5D9E9
:1044C00020236365032384F83530012070BD00BFCD
:1044D0001000024028000240085402581C540258A0
:1044E00030540258400002401A6881491140A268C5
:1044F000E06802432069024360690243A069024305
:10450000E0690243206A02430A43616A042900F019
:1045100090806168522900F296803F29C0F08E8019
:104520003F39744820FA01F111F0010F01D042F433
:1045300080121A602668756925F00705636A1D43B5
:10454000042B08D1A36A1D43E36A23B12046FFF779
:1045500031FE00287CD175612046FFF7D3FDE36D65
:1045600003F01F023F239340836023686249634A3C
:10457000934218BF8B4242D0183293423FD0183238
:1045800093423CD01832934239D01832934236D0FD
:104590001832934233D01832934230D002F556721B
:1045A00093422CD01832934229D01832934226D00D
:1045B0001832934223D01832934220D018329342BB
:1045C0001DD0183293421AD01832934217D04C4A59
:1045D000934214D01432934211D0143293420ED02D
:1045E000143293420BD01432934208D014329342C7
:1045F00005D01432934202D01432934213D1204694
:10460000FFF722FEA368802B63D0236E22791A6005
:10461000636EA26E5A606368013B072B5CD900236E
:10462000E3662367636700206065012384F8353003
:104630004CE7E16A206B01430A436AE729390529FF
:104640003FF677AF73E7743903293FF672AF6EE731
:1046500040236365012084F8350037E7022284F89F
:104660003520002284F8342019686FF31011A268F5
:10467000402A2CD0802A27D00022E06842EAD002CB
:10468000206942EAD002606942EAD002A06942EAA7
:10469000D002E06942EAD002206A42EA10120A43DC
:1046A0001A602268174B1344174AA2FB03231B0905
:1046B0009B00E3652046FFF725FDE26D02F01F0138
:1046C00001228A40426050E74FF48042D5E7102231
:1046D000D3E70023636098E72046FFF70BFEE36E05
:1046E00000221A60236F626F5A609CE70120EDE69A
:1046F0003F8010FE0F030F00100002402800024010
:1047000008540258F8ABFDA7CDCCCCCC002800F063
:104710003D8170B5044690F83400012800F03881DE
:10472000012084F8340094F83500012807D04FF4B4
:1047300000636365002384F83430012070BD0220DB
:1047400084F83500002060652068924E924DA842A2
:1047500018BFB0422FD01835A8422CD01835A84227
:1047600029D01835A84226D01835A84223D01835AC
:10477000A84220D01835A8421DD005F55675A8428C
:1047800019D01835A84216D01835A84213D01835BC
:10479000A84210D01835A8420DD01835A8420AD02A
:1047A0001835A84207D01835A84204D0056825F06E
:1047B0000105056003E0056825F001050560204658
:1047C000FFF7C6FB23687349734A934218BF8B42B5
:1047D00038D01832934235D01832934232D0183242
:1047E00093422FD0183293422CD01832934229D0C2
:1047F0001832934226D002F55672934222D01832D4
:1048000093421FD0183293421CD01832934219D0D1
:104810001832934216D01832934213D01832934272
:1048200010D0183293420DD01A6822F00E0242F0D6
:104830000A021A60236C93B12268136843F00403E0
:1048400013600CE01A6822F01E0242F016021A6091
:10485000236C23B12268136843F0080313602368B4
:104860004C494D4A934218BF8B4242D01832934272
:104870003FD0183293423CD01832934239D018328C
:10488000934236D01832934233D01832934230D00C
:1048900002F5567293422CD01832934229D0183226
:1048A000934226D01832934223D01832934220D01C
:1048B000183293421DD0183293421AD018329342C4
:1048C00017D0364A934214D01432934211D0143286
:1048D00093420ED0143293420BD01432934208D03C
:1048E0001432934205D01432934202D014329342D0
:1048F0000ED1236E1A6812F4803F03D01A6842F476
:1049000080721A60E36E1BB11A6842F480721A60FA
:1049100023682049204A934218BF8B4230D0183276
:1049200093422DD0183293422AD01832934227D086
:104930001832934224D01832934221D01832934235
:104940001ED002F5567293421AD01832934217D0F5
:104950001832934214D01832934211D01832934235
:104960000ED0183293420BD01832934208D018322E
:10497000934205D01A6842F001021A600020DDE679
:104980001A6842F001021A600020D7E60120704741
:104990000220D3E6100002402800024008540258CA
:1049A00070B50446FFF754FA002C00F08F810546DD
:1049B00094F83530022B06D080236365002384F8F9
:1049C0003430012070BD23688B498C4A934218BF54
:1049D0008B4230D0183293422DD0183293422AD0D5
:1049E0001832934227D01832934224D0183293427F
:1049F00021D0183293421ED002F5567293421AD03B
:104A00001832934217D01832934214D0183293427E
:104A100011D0183293420ED0183293420BD0183274
:104A2000934208D01832934205D01A6822F00E0241
:104A30001A60266809E01A6822F01E021A602268CD
:104A4000536923F080035361266823686A496B4ADF
:104A5000934218BF8B4242D0183293423FD0183253
:104A600093423CD01832934239D01832934236D018
:104A70001832934233D01832934230D002F5567236
:104A800093422CD01832934229D01832934226D028
:104A90001832934223D01832934220D018329342D6
:104AA0001DD0183293421AD01832934217D0544A6C
:104AB000934214D01432934211D0143293420ED048
:104AC000143293420BD01432934208D014329342E2
:104AD00005D01432934202D01432934204D1226E94
:104AE000136823F48073136023684349434A934255
:104AF00018BF8B422FD0183293422CD018329342D9
:104B000029D01832934226D01832934223D018323B
:104B1000934220D0183293421DD002F55672934230
:104B200019D01832934216D01832934213D018324B
:104B3000934210D0183293420DD0183293420AD0CB
:104B40001832934207D01832934204D01A6822F0E8
:104B500001021A6003E01A6822F001021A60336849
:104B600013F0010F0ED0FFF773F9431B052BF6D995
:104B700020236365032384F83530002384F8343020
:104B800001201FE723681C491C4A934218BF8B422F
:104B900038D01832934235D01832934232D018327E
:104BA00093422FD0183293422CD01832934229D0FE
:104BB0001832934226D002F55672934222D0183210
:104BC00093421FD0183293421CD01832934219D00E
:104BD0001832934216D01832934213D018329342AF
:104BE00010D0183293420DD0A16DE36D03F01F0277
:104BF000012393404B600CE010000240280002406B
:104C000008540258A16DE36D03F01F023F23934047
:104C10008B6023682E492F4A934218BF8B4242D0A3
:104C2000183293423FD0183293423CD0183293420C
:104C300039D01832934236D01832934233D01832DA
:104C4000934230D002F5567293422CD018329342E0
:104C500029D01832934226D01832934223D01832EA
:104C6000934220D0183293421DD0183293421AD06A
:104C70001832934217D0184A934214D014329342F8
:104C800011D0143293420ED0143293420BD014320E
:104C9000934208D01432934205D01432934202D08A
:104CA000143293420BD1636EA26E5A60E36E33B13D
:104CB0001A6822F480721A60236F626F5A600123AF
:104CC00084F83530002084F834007BE6012079E652
:104CD000100002402800024008540258002800F04A
:104CE000278108B5024690F83530022B03D0802387
:104CF0004365012008BD03688F4890498B4218BF67
:104D000083420CBF0120002065D018318B4262D055
:104D100018318B425FD018318B425CD018318B42F6
:104D200059D018318B4256D018318B4253D001F5EF
:104D300056718B424FD018318B424CD018318B4278
:104D400049D018318B4246D018318B4243D01831AC
:104D50008B4240D018318B423DD018318B423AD033
:104D6000196821F00E0119601368734873498B426A
:104D700018BF83426AD072498B4267D018318B4288
:104D800064D018318B4261D018318B425ED018311B
:104D90008B425BD018318B4258D001F556718B4253
:104DA00054D018318B4251D018318B424ED018312B
:104DB0008B424BD018318B4248D018318B4245D0B2
:104DC00018318B4242D018318B423FD0196821F004
:104DD000010119603EE0042182F8351080BB584A79
:104DE00093422DD0183293422AD01832934227D0C2
:104DF0001832934224D01832934221D01832934271
:104E00001ED002F5567293421AD01832934217D030
:104E10001832934214D01832934211D01832934270
:104E20000ED0183293420BD01832934208D0183269
:104E3000934205D01A6822F001021A60002059E757
:104E40001A6822F001021A60002053E7196821F065
:104E5000010119601368384838498B4218BF8342F2
:104E600042D018318B423FD018318B423CD01831A0
:104E70008B4239D018318B4236D018318B4233D027
:104E800018318B4230D001F556718B422CD018313D
:104E90008B4229D018318B4226D018318B4223D037
:104EA00018318B4220D018318B421DD018318B42E3
:104EB0001AD018318B4217D022498B4214D01431AA
:104EC0008B4211D014318B420ED014318B420BD057
:104ED00014318B4208D014318B4205D014318B42EF
:104EE00002D014318B4217D1116E0B6823F48073FA
:104EF0000B60906DD36D03F01F0101238B40436065
:104F0000536E916E5960D36E33B1196821F480717C
:104F10001960136F516F5960012382F835300023F7
:104F200082F83430136D2BB1104698470020E1E62B
:104F3000012070470020DDE61000024028000240FA
:104F40004000024008540258F0B583B004460023E4
:104F500001937D4B1D687D4BA3FB0535AD0A876D25
:104F60003E68D7F800C0036879497A48834218BF81
:104F70008B420CBF0120002061D0774A93425ED063
:104F8000183293425BD01832934258D01832934271
:104F900055D01832934252D0183293424FD002F576
:104FA000567293424BD01832934248D018329342F3
:104FB00045D01832934242D0183293423FD0183233
:104FC00093423CD01832934239D01832934236D0B3
:104FD0006249634A934218BF8B4212D0614A93429E
:104FE0000FD0143293420CD01432934209D01432B1
:104FF000934206D01432934203D01432934240F0CD
:105000005F821A68E16D01F01F010420884010EAF8
:105010000C0F00F0A58212F0040F00F0A18278605E
:1050200012F4004F00F0588212F4803F40F04E829C
:10503000A36C002B00F044822046984740E2E26DCA
:1050400002F01F0108228A40324241D070BB424A1E
:1050500093422BD01832934228D01832934225D055
:105060001832934222D0183293421FD01832934202
:105070001CD002F55672934218D01832934215D0C4
:105080001832934212D0183293420FD01832934202
:105090000CD01832934209D01832934206D01832FD
:1050A000934203D01A68C2F3C00202E01A68C2F346
:1050B00080026AB11A6822F004021A60E36D03F0FC
:1050C0001F0208239340BB60636D43F001036365D7
:1050D000E26D02F01F0226FA02F313F0010F47D02F
:1050E00023681B481B498B4218BF83423CD01831B0
:1050F0008B4239D018318B4236D018318B4233D0A5
:1051000018318B4230D018318B422DD018318B4260
:105110002AD001F556718B4226D018318B4223D00C
:1051200018318B4220D018318B421DD018318B4260
:105130001AD018318B4217D018318B4214D0183145
:105140008B4211D01B6813E00C000024B5814E1B6C
:10515000100002402800024040000240085402585B
:105160001C540258305402585B6913F0800F3BD135
:10517000E36D03F01F03042202FA03F333423FD02E
:105180002268954895498A4218BF824234D0183126
:105190008A4231D018318A422ED018318A422BD01F
:1051A00018318A4228D018318A4225D018318A42D3
:1051B00022D001F556718A421ED018318A421BD086
:1051C00018318A4218D018318A4215D018318A42D3
:1051D00012D018318A420FD018318A420CD01831BF
:1051E0008A4209D013680BE001239340BB60636DD2
:1051F00043F002036365BBE7126812F0020F3DD172
:10520000E36D03F01F03102202FA03F333425FD071
:105210002268714871498A4218BF824234D01831DD
:105220008A4231D018318A422ED018318A422BD08E
:1052300018318A4228D018318A4225D018318A4242
:1052400022D001F556718A421ED018318A421BD0F5
:1052500018318A4218D018318A4215D018318A4242
:1052600012D018318A420FD018318A420CD018312E
:105270008A4209D01268C2F3800208E0BB60636D05
:1052800043F004036365BBE71268C2F3C002FAB1DE
:10529000BB6023681A6812F4802F0DD01B6813F4CA
:1052A000002F04D1236C9BB12046984710E0A36CDB
:1052B00073B1204698470BE01A6812F4807F03D13F
:1052C0001A6822F008021A60236C0BB12046984736
:1052D000E36D03F01F03202202FA03F3334200F0D0
:1052E000918022683C483D498A4218BF82422ED0B4
:1052F00018318A422BD018318A4228D018318A427C
:1053000025D018318A4222D018318A421FD0183154
:105310008A421CD001F556718A4218D018318A424F
:1053200015D018318A4212D018318A420FD0183164
:105330008A420CD018318A4209D018318A4206D0EC
:1053400018318A4203D01268C2F3400202E01268A8
:10535000C2F30012002A55D0BB6094F83530042BFC
:105360000ED023681A6812F4802F39D01B6813F40A
:10537000002F2CD1636C002B44D02046984741E08D
:105380002268136823F0160313602268536923F020
:1053900080035361236CB3B12268136823F00803C0
:1053A0001360E36D03F01F023F239340BB600123B2
:1053B00084F83530002384F83430236D002B7FD0FF
:1053C000204698477CE0A36C002BE5D1E9E7E36B2E
:1053D000C3B12046984715E0100002402800024063
:1053E0001A6812F4807F09D11A6822F010021A603C
:1053F000012384F83530002384F83430E36B0BB19B
:1054000020469847636D002B5AD0636D13F0010F4F
:1054100052D0042384F8353023689649964A934243
:1054200018BF8B422FD0183293422CD0183293429F
:1054300029D01832934226D01832934223D0183202
:10544000934220D0183293421DD002F556729342F7
:1054500019D01832934216D01832934213D0183212
:10546000934210D0183293420DD0183293420AD092
:105470001832934207D01832934204D01A6822F0AF
:1054800001021A6003E01A6822F001021A60019B0F
:1054900001330193AB4204D823681B6813F0010F5A
:1054A000F5D123681B6813F0010F0BD0032384F898
:1054B0003530002384F83430E36C0BB12046984734
:1054C00003B0F0BD012384F83530F2E7236C002BE4
:1054D000F6D020469847F3E712F0200F3AD1236820
:1054E0006449654A934218BF8B422FD018329342C9
:1054F0002CD01832934229D01832934226D0183239
:10550000934223D01832934220D0183293421DD0B8
:1055100002F55672934219D01832934216D01832BF
:10552000934213D01832934210D0183293420DD0C8
:10553000183293420AD01832934207D0183293425D
:1055400004D01A6822F004021A6003E01A6822F0FC
:1055500008021A60236C002BB2D020469847AFE7B0
:105560000220884010EA0C0F60D012F0020F5DD0CC
:10557000786012F4004F0ED012F4803F05D1636CB6
:10558000002B9DD0204698479AE7E36B002B97D0DD
:105590002046984794E712F0200F40D12368354900
:1055A000354A934218BF8B422FD0183293422CD0E9
:1055B0001832934229D01832934226D0183293429F
:1055C00023D01832934220D0183293421DD002F5D6
:1055D0005672934219D01832934216D01832934221
:1055E00013D01832934210D0183293420DD0183293
:1055F00093420AD01832934207D01832934204D013
:105600001A6822F00A021A6003E01A6822F01402F3
:105610001A60012384F83530002384F83430E36BBA
:10562000002B3FF44DAF2046984749E7082000FA89
:1056300001F111EA0C0F3FF443AF12F0080F3FF4F1
:105640003FAF1A6822F00E021A60E36D03F01F03E9
:10565000012202FA03F37B60626584F8352000239F
:1056600084F83430E36C002B3FF42AAF204698478F
:1056700026E700BF100002402800024030B4416B12
:105680000468D4F884306F4A134043EA8103C4F8B5
:1056900084300468D4F8843023F47F03856B43EAB4
:1056A0000543C4F88430836B0B440468D4F8881035
:1056B000114041EA8301C4F888100468D4F88810C6
:1056C00021F4FE01C56B41EA0541C4F88810C16BA5
:1056D00003EB41030468D4F8A010114041EA8301B0
:1056E000C4F8A0100468D4F8A01021F4FE01056CE1
:1056F00041EA0541C4F8A010016C446C04FB01337D
:105700000468D4F8B010114041EA8301C4F8B01025
:105710000468D4F8B01021F4FE01856C41EA05411B
:10572000C4F8B010816CC46C04FB01330468D4F875
:10573000AC10114041EA8301C4F8AC10016D446D16
:1057400004FB01330468D4F8F010114041EA8301EE
:10575000C4F8F0100468D4F8F01021F47C11856DC1
:1057600041EA0541C4F8F010816D03EB4103046880
:10577000D4F8C0100A4042EA8303C4F8C03002687B
:10578000D2F8C03023F47C13C16D43EA0143C2F860
:10579000C0300268D2F8C03023F07C53016E43EA77
:1057A0000163C2F8C030436B274A1A449200C266B4
:1057B000836B02EB83030367C16B03EBC103436796
:1057C000016C446C04FB01F103EB81038367816C82
:1057D000C46C04FB01F103EB8103C367016D446DED
:1057E00004FB01F103EB8103C0F88030816D03EB12
:1057F000C103C0F88430816EC46D01FB04FC03EB6F
:105800008C03C0F88830046E04FB01F103EB8103C4
:10581000C0F890300D498B420DD9D0F89C3043F040
:105820002003C0F89C30032380F89830012007E063
:10583000002342F8043BD0F890309342F8D800207F
:1058400030BC70470300FFFF002B0010FCD300406A
:1058500070B54C68FCB90D698C6825430C6845EA45
:1058600084450E6ACC6944EA06648E6934434E6905
:105870003443CE6844EA0644D0F88460806E00FB6E
:1058800003F306EB830E46F82350CEF804400EF1E6
:10589000080E002019E00C698D6825430C6825432B
:1058A00045F08045DDE702EB000C9CF803409CF8D6
:1058B00002301B0443EA04639CF8014043EA0423DA
:1058C000145C23434EF8043B0430CB68024CE35C89
:1058D0008342E8D870BD00BF4C14010830B595B0C4
:1058E00004464C22A04901A8FBF72AF9002C00F03D
:1058F000388123689D4A934220D094F898300BB3A6
:105900002268936923F010039361FEF7A1FA05461C
:1059100023689A6912F0080F1AD0FEF799FA431B10
:105920000A2BF5D9D4F89C3043F00103C4F89C301D
:10593000032384F89830012015B030BD03F580733F
:105940006360DAE784F899302046FCF77FF9D7E7FF
:105950009A6942F001029A61FEF77AFA05462368D5
:105960009A6912F0010F0FD1FEF772FA401B0A2854
:10597000F5D9D4F89C3043F00103C4F89C300323DC
:1059800084F898300120D7E79A6942F002029A61C0
:10599000237C012B40D02268936943F0400393613C
:1059A000637C012B3ED02268936923F4804393618A
:1059B000A37C012B3CD02268936943F4805393610C
:1059C0002268936923F44073A1680B4393612268B2
:1059D000936923F0A40393612268136923F01003F1
:1059E0001361E368012B29D0002B2CD0022B00F08F
:1059F0009B802268936943F0800393612268136956
:105A000043F010031361E368032B1CD122689369F0
:105A100043F02003936116E02268936923F040036A
:105A20009361BDE72268936943F480439361BFE7C4
:105A30002268936923F480539361C1E722689369D4
:105A400043F004039361A3695A1EE369013B1B02FF
:105A500043EA4263226A013A13436269013A2168C8
:105A600043EA0243CB61A368B3F5407F62D0236E63
:105A700033B12268D2F8C030616E0B43C2F8C03037
:105A8000E36D226ED3420DD02168D1F8C83023F0E7
:105A90000703A26E14A800EB820252F84C2C1343A9
:105AA000C1F8C830236C6BB12168D1F8BC3023F049
:105AB0000703626C14A800EB820252F84C2C1343CB
:105AC000C1F8BC30A36C73B12168D1F8BC3023F0AD
:105AD0007003E26C14A800EB820252F84C2C43EAEB
